:100000000C945D000C9485000C9485000C94850084
:100010000C9485000C9485000C9485000C9485004C
:100020000C9485000C9485000C9485000C9410149D
:100030000C9485000C9485000C9485000C9485002C
:100040000C94D30C0C9485000C94270F0C94590F2E
:100050000C9485000C9485000C9485000C9485000C
:100060000C9485000C94850000000008000201003B
:100070000003040700000000000000000102040863
:100080001020408001020408102001020408102002
:10009000040404040404040402020202020203032E
:1000A0000303030300000000250028002B000000CC
:1000B0000000240027002A00890F11241FBECFEF63
:1000C000D8E0DEBFCDBF12E0A0E0B1E0E0EEF2E3A9
:1000D00002C005900D92A638B107D9F724E0A6E832
:1000E000B2E001C01D92A73DB207E1F710E0CDE5F7
:1000F000D0E004C02197FE010E948316CC35D107C1
:10010000C9F70E94080C0C946E190C940C14000092
:100110002F923F924F925F926F927F928F929F9217
:10012000AF92BF92CF92DF92EF92FF920F931F9305
:10013000CF93DF93E42FF52F419050804F925F9241
:10014000E42FF52F4DB65EB6419250820C94A80074
:10015000E62FF72F419050804DBE5EBE5F904F90CE
:10016000E62FF72F41925082DF91CF911F910F918F
:10017000FF90EF90DF90CF90BF90AF909F908F90C7
:100180007F906F905F904F903F902F900C943A111A
:10019000E62FF72F419150814DBF5EBF0C94441163
:1001A0002F923F924F925F926F927F928F929F9287
:1001B000AF92BF92CF92DF92EF92FF920F931F9375
:1001C000CF93DF93E42FF52F419050804F925F92B1
:1001D000E42FF52F4DB65EB6419250820C94C800C4
:1001E000E82FF92F419150814DBF5EBFE62FF72FC9
:1001F000099400008091CF029091D0028530910542
:10020000F9F48091BA049091BB04019771F1809147
:10021000B8049091B904019741F11092D102109263
:10022000D2021092D3021092D4021092D0021092F5
:10023000CF0282E090E09093010180930001089545
:100240008430910521F38330910539F48091BC0409
:100250009091BD04019709F708950197029728F43A
:100260008091B2049091B304D6CF08954F925F92DB
:100270006F927F928F929F92AF92BF92CF92DF92B6
:10028000EF92FF92CF93DF93CDB7DEB76C970FB6A7
:10029000F894DEBF0FBECDBF8091BA049091BB042D
:1002A000019799F08091B8049091B904019769F091
:1002B0008091BC049091BD04019739F08091B20403
:1002C0009091B304019709F04EC48091CE02823020
:1002D00024F48F5F8093CE023AC02091CA023091FD
:1002E000CB024091CC025091CD026091B404709148
:1002F000B5048091B6049091B7040E9438146B0144
:100300007C012091D6023091D7024091D8025091C1
:10031000D9026091C6027091C7028091C802909183
:10032000C9020E9438149B01AC01C701B6010E94AA
:1003300039142DEC3CEC4CEC5DE30E94AA14609364
:10034000C2027093C3028093C4029093C50240908E
:10035000B4045090B5046090B6047090B704409215
:10036000CA025092CB026092CC027092CD02C09031
:10037000D602D090D702E090D802F090D902C09275
:10038000C602D092C702E092C802F092C90228EEDB
:1003900036EF42E15DE3C701B6010E94CC1526E6C7
:1003A00036E646E650E40E94AA149B01AC016DEDCE
:1003B00074E286EB9FE30E9438144B015C0124E752
:1003C00034E247E15DE36091C2027091C302809123
:1003D000C4029091C5020E94CC159B01AC01C501DD
:1003E000B4010E9438144B015C012DEC3CEC4CE054
:1003F00050E40E94C71518169CF02DEC3CEC4CE420
:100400005EE3C501B4010E94A51418168CF09DECA2
:10041000892E9CEC992E9CE4A92E9EE3B92E08C04F
:100420008DEC882E8CEC982E8CE0A82E80E4B82ED3
:1004300026E636E646E650E4C301B2010E94AA145D
:1004400069837A838B839C83A50194010E94CC15D8
:1004500020E030E040EA50E40E9439146D837E834E
:100460008F8398876093BE027093BF028093C0020F
:100470009093C102DC01CB018093AA049093AB045A
:10048000A093AC04B093AD0429813A814B815C8187
:10049000CA01B9010E94CC154B015C0120E030E09B
:1004A00040E451E40E94AA1469837A838B839C837D
:1004B00060939A0270939B0280939C0290939D029A
:1004C00020E030E040E651E4C501B4010E94AA14E6
:1004D00069877A878B879C876093920270939302D7
:1004E000809394029093950220E030E040E85DE331
:1004F000C501B4010E94CC156D877E878F87988BCC
:100500006093960270939702809398029093990259
:1005100020E030E040EC50E4C501B4010E94AA1490
:10052000698B7A8B8B8B9C8B60938E0270938F027E
:10053000809390029093910220E030E040EA50E4F2
:10054000C501B4010E94AA146D8B7E8B8F8B988F8E
:1005500060938A0270938B0280938C0290938D0239
:1005600020E030E040E85EE3C501B4010E94CC1514
:10057000698F7A8F8B8F9C8F60938602709387022E
:10058000809388029093890220E030E0A901C7019E
:10059000B6010E94A514882309F48FC026E636E62A
:1005A00046E650E4C701B6010E94AA144B015C0163
:1005B0009B01AC016091AE047091AF048091B004D6
:1005C0009091B1040E94AA146093BA027093BB0286
:1005D0008093BC029093BD02A501940169817A8148
:1005E0008B819C810E94AA146093B6027093B7021B
:1005F0008093B8029093B902A501940169857A8528
:100600008B859C850E94AA146093AE027093AF0202
:100610008093B0029093B102A50194016D857E850F
:100620008F8598890E94AA146093B2027093B302D6
:100630008093B4029093B502A501940169897A89E7
:100640008B899C890E94AA146093A6027093A702CA
:100650008093A8029093A902A50194016D897E89D7
:100660008F89988D0E94AA146093A2027093A302AE
:100670008093A4029093A502A5019401698D7A8DBF
:100680008B8D9C8D0E94AA1460939E0270939F0292
:100690008093A0029093A102A50194016D817E81B7
:1006A0008F8198850E94AA146093AA027093AB026E
:1006B0008093AC029093AD0244C08FEF9FEFAFE701
:1006C000BFE78093BA029093BB02A093BC02B093A1
:1006D000BD028093B6029093B702A093B802B09384
:1006E000B9028093AE029093AF02A093B002B09390
:1006F000B1028093B2029093B302A093B402B0937C
:10070000B5028093A6029093A702A093A802B0938B
:10071000A9028093A2029093A302A093A402B09393
:10072000A50280939E0290939F02A093A002B09393
:10073000A1028093AA029093AB02A093AC02B09363
:10074000AD021092D1021092D2021092D3021092F6
:10075000D40220E030E0A901C701B6010E94C7150C
:100760001816ACF42091B2023091B3024091B40259
:100770005091B5026091BA027091BB028091BC02A7
:100780009091BD020E94A51418166CF11FC020E0C4
:1007900030E0A901C701B6010E94A51418160CF497
:1007A00029C1209196023091970240919802509170
:1007B00099026091AE047091AF048091B004909161
:1007C000B1040E94A51418160CF4F4C180E090E066
:1007D000A0E0B1E48093D1029093D202A093D3021F
:1007E000B093D4024BC020E030E0A901C701B601AC
:1007F0000E94A5141816ACF62091AE023091AF02FB
:100800004091B0025091B1026091BA027091BB0266
:100810008091BC029091BD020E94A51418168CF123
:1008200026E636E646E650E46091B4047091B504DD
:100830008091B6049091B7040E94AA149B01AC0168
:100840000E94CC156B017C016091AE047091AF04E5
:100850008091B0049091B1049B01AC010E943914C5
:100860009B01AC01C701B6010E94AA146093D1029A
:100870007093D2028093D3029093D40281E090E0EF
:1008800038C120E030E0A901C701B6010E94A514DB
:1008900018160CF099C12091B6023091B702409120
:1008A000B8025091B9026091BA027091BB02809176
:1008B000BC029091BD020E94A51418160CF0B7C19D
:1008C00020E030E0A901C701B6010E94A514181666
:1008D0000CF099C12091AA023091AB024091AC0278
:1008E0005091AD026091BA027091BB028091BC023E
:1008F0009091BD020E94A51418160CF0E7C120E0EB
:1009000030E0A901C701B6010E94A51418160CF029
:10091000C9C12091A6023091A7024091A80250912E
:10092000A9026091BA027091BB028091BC029091C1
:10093000BD020E94A51418160CF017C220E030E08A
:10094000A901C701B6010E94A51418160CF0F9C13F
:100950002091A2023091A3024091A4025091A502DD
:100960006091BA027091BB028091BC029091BD026D
:100970000E94A51418160CF01CC220E030E0A9015A
:10098000C701B6010E94A51418160CF0FDC12091F4
:100990009E0230919F024091A0025091A10260916D
:1009A000BA027091BB028091BC029091BD020E947C
:1009B000A51418160CF0B1C220E030E0A901C7015F
:1009C000B6010E94A51418160CF041C220919E0297
:1009D00030919F024091A0025091A1026091BA0211
:1009E0007091BB028091BC029091BD020E94C7151C
:1009F0001816FCF020E030E0A901C701B6010E9402
:100A0000A51418160CF499C0209186023091870223
:100A100040918802509189026091AE047091AF04B8
:100A20008091B0049091B1040E94C71518160CF083
:100A300084C0C090BE04D090BF04E090C004F09089
:100A4000C104A3019201C701B6010E94C715A30109
:100A50009201181664F5C701B6010E9438146B01A3
:100A60007C0120E030E040E450E40E94C7151816F5
:100A70006CF480E090E0A0E4B0E48093D102909325
:100A8000D202A093D302B093D40208C0C092D10284
:100A9000D092D202E092D302F092D40285E090E0AC
:100AA0009093D0028093CF0281E090E042C0C701D2
:100AB000B6010E94A51487FF34C0A3019201C701AB
:100AC000B6010E94381420E030E040E450EC0E946F
:100AD000A51487FF17C080E090E0A0E4B0E4809305
:100AE000D1029093D202A093D302B093D40285E0B6
:100AF00090E09093D0028093CF0210920101109267
:100B000000011BC0A7019601C301B2010E94381465
:100B10006093D1027093D2028093D3029093D40257
:100B2000E6CF85E090E09093D0028093CF0282E000
:100B300090E090930101809300016C960FB6F894B9
:100B4000DEBF0FBECDBFDF91CF91FF90EF90DF9062
:100B5000CF90BF90AF909F908F907F906F905F905D
:100B60004F900C94FA001092D1021092D20210927F
:100B7000D3021092D4021092D0021092CF0282E0DF
:100B800090E090930101809300016C960FB6F89469
:100B9000DEBF0FBECDBFDF91CF91FF90EF90DF9012
:100BA000CF90BF90AF909F908F907F906F905F900D
:100BB0004F90089520E030E0A901C701B6010E94DE
:100BC000C71518160CF418CE20919202309193029A
:100BD00040919402509195026091AE047091AF04DF
:100BE0008091B0049091B1040E94A51418160CF0E5
:100BF00017CE20E030E0A901C701B6010E94C71559
:100C000018160CF448CE20919A0230919B02409124
:100C10009C0250919D026091AE047091AF0480914E
:100C2000B0049091B1040E94A51418168CF126E628
:100C300036E646E650E46091B4047091B5048091C4
:100C4000B6049091B7040E94AA149B01AC010E94C3
:100C5000CC156B017C016091AE047091AF04809162
:100C6000B0049091B1049B01AC010E9439149B0126
:100C7000AC01C701B6010E94AA146093D10270931F
:100C8000D2028093D3029093D40282E090E031CFDD
:100C900020E030E0A901C701B6010E94C71518166F
:100CA0000CF418CE2091AA043091AB044091AC040E
:100CB0005091AD046091AE047091AF048091B00486
:100CC0009091B1040E94A51418168CF126E636E620
:100CD00046E650E46091B4047091B5048091B60486
:100CE0009091B7040E94AA149B01AC010E94CC15FC
:100CF0006B017C016091AE047091AF048091B004EF
:100D00009091B1049B01AC010E9439149B01AC018C
:100D1000C701B6010E94AA146093D1027093D20257
:100D20008093D3029093D40283E090E0E2CE20E05F
:100D300030E0A901C701B6010E94C71518160CF4CE
:100D4000E8CD20918E0230918F0240919002509117
:100D500091026091AE047091AF048091B0049091C3
:100D6000B1040E94A51418162CF01092D002109213
:100D7000CF02DDCE20E030E0A901C701B6010E941C
:100D8000C71518160CF4E4CD20918A0230918B021D
:100D900040918C0250918D026091AE047091AF042D
:100DA0008091B0049091B1040E94A51418160CF41F
:100DB00044C026E636E646E650E46091B4047091FD
:100DC000B5048091B6049091B7040E94AA149B01C7
:100DD000AC010E94CC156B017C016091AE04709156
:100DE000AF048091B0049091B1049B01AC010E94CA
:100DF00039149B01AC01C701B6010E94AA1460938B
:100E0000D1027093D2028093D3029093D40220E057
:100E100030E040E450E40E94C71518160CF07AC088
:100E200080E090E0A0E4B0E48093D1029093D202FD
:100E3000A093D302B093D4026DC020E030E0A901AA
:100E4000C701B6010E94C71518160CF4A0CD8091F9
:100E5000AE049091AF04A091B004B091B104898325
:100E60009A83AB83BC8320918602309187024091A4
:100E7000880250918902BC01CD010E94A51420E096
:100E800030E0A90118160CF4B4C0C701B6010E94E5
:100E9000C71518160CF441C020E030E0A901C701C5
:100EA000B6010E94A51487FFA1C08090BE04909057
:100EB000BF04A090C004B090C104A3019201C50179
:100EC000B4010E94C71518160CF448C0A301920182
:100ED000C501B4010E94A51487FF88C0A301920137
:100EE000C501B4010E94381420E030E040E450EC29
:100EF0000E94A51487FD94CFA5019401C301B201FE
:100F00000E9438146093D1027093D2028093D3026E
:100F10009093D40284E090E0ECCD26E636E646E6F7
:100F200050E4C701B6010E94AA149B01AC010E94C3
:100F3000CC156B017C0120918A0230918B0240918B
:100F40008C0250918D026091AE047091AF0480913B
:100F5000B0049091B1040E94381447CF26E636E6DB
:100F600046E650E4C701B6010E94AA149B01AC01F9
:100F70000E94CC156B017C0120918A0230918B027A
:100F800040918C0250918D0269817A818B819C8184
:100F90000E9438149B01AC010E9439149B01AC01E2
:100FA000C701B6010E94AA146B017C0120E030E069
:100FB00040E450E40E94C71518164CF0C092D102CC
:100FC000D092D202E092D302F092D4020CC080E020
:100FD00090E0A0E4B0E48093D1029093D202A09379
:100FE000D302B093D40284E090E05ACD84E090E044
:100FF0009ACDC701B6010E94C71518160CF4E6CCAD
:1010000003CDCF92DF92EF92FF926B017C01809132
:10101000D502811104C081E08093D50220C0A701D0
:1010200096016091DA027091DB028091DC0290916E
:10103000DD020E9438142DEC3CEC4CEC5DE30E9488
:10104000AA1426E636E646E650E40E94CC156093E4
:10105000D6027093D7028093D8029093D902C0929F
:10106000DA02D092DB02E092DC02F092DD02FF9025
:10107000EF90DF90CF9008958091D2049091D304A7
:101080009093BB048093BA048091C6049091C704E6
:101090009093B9048093B8048091D4049091D504BE
:1010A0009093BD048093BC048091D0049091D104AE
:1010B0009093B3048093B2048091C2049091C304CE
:1010C000A091C404B091C5048093B4049093B50476
:1010D000A093B604B093B7048091C8049091C9045A
:1010E000A091CA04B091CB048093AE049093AF0456
:1010F000A093B004B093B1048091CC049091CD043E
:10110000A091CE04B091CF048093BE049093BF040D
:10111000A093C004B093C10408955F926F927F9230
:101120008F929F92AF92BF92CF92DF92EF92FF92F7
:101130000F931F93CF93DF93CDB7DEB70DB71EB7D5
:101140008CE38093DE0220E030E040E251E46091E5
:10115000AE047091AF048091B0049091B1040E94EC
:10116000CC150E941C159B01CB01A12CB12CEAE0EF
:10117000F0E0A5014F5F5F4F6A011816190634F4BD
:10118000BF010E943916CB015601F3CF8DB69EB632
:101190008DB79EB7841B950B0FB6F8949EBF0FBEFC
:1011A0008DBF4DB75EB74F5F5F4F7A013F932F936F
:1011B00080E891E09F938F93DF92CF92FF924F93BD
:1011C0000E948916F701AFEDB2E0C7018A0D9B1DA1
:1011D0002DB73EB7285F3F4F0FB6F8943EBF0FBE06
:1011E0002DBFE817F90719F021912D93FACF0FB60B
:1011F000F8949EBE0FBE8DBE8EE2F601E252FD4F08
:10120000808320E030E040E05FE36091B4047091BF
:10121000B5048091B6049091B7040E9439140E94DD
:101220001C15462F572E862F952D612C712CEAE028
:10123000F0E093012F5F3F4F1816190634F4BF01F9
:101240000E943916CB013901F4CFEDB6FEB68DB749
:101250009EB7821B930B0FB6F8949EBF0FBE8DBF37
:1012600001964C015F924F9380E891E09F938F939A
:101270003F932F939F928F920E948916F4012DB76E
:101280003EB7285F3F4F0FB6F8943EBF0FBE2DBF4D
:1012900080E090E08615970551F02191DC01AA0DC0
:1012A000BB1DA252BD4F12962C930196F3CFC80ED0
:1012B000D91E0FB6F894FEBE0FBEEDBE56013FEF2D
:1012C000A31AB30AF501E252FD4F8EE2808320E0BB
:1012D00030E040E251E46091D6027091D7028091F3
:1012E000D8029091D9020E94CC150E941C159B0136
:1012F00077FF0DC0560142E0A40EB11CF501E25289
:10130000FD4F2DE2208322273327261B370BC901EF
:10131000812C912C5AE0E52EF12CF401319618160F
:10132000190634F4B7010E943916CB014F01F5CFED
:10133000CDB6DEB68DB79EB78E1B9F0B0FB6F89459
:101340009EBF0FBE8DBF4DB75EB74F5F5F4F7A0137
:101350003F932F9380E891E09F938F93FF93EF93B8
:10136000FF924F930E948916F7018DB79EB708969A
:101370000FB6F8949EBF0FBE8DBF80E090E07C0159
:10138000EA0CFB1C8815990541F02191D701A25266
:10139000BD4F11962C930196F2CF0FB6F894DEBE96
:1013A0000FBECDBE67019FEFC91AD90AF601E252FE
:1013B000FD4F8EE2808320E030E040E251E4609116
:1013C000AA047091AB048091AC049091AD040E948A
:1013D000CC150E941C15462F572E862F952D612C5B
:1013E000712CEAE0F0E093012F5F3F4F18161906C9
:1013F00034F4BF010E943916CB013901F4CFADB6E8
:10140000BEB68DB79EB7821B930B0FB6F8949EBFE6
:101410000FBE8DBF01964C015F924F9380E891E023
:101420009F938F933F932F939F928F920E94891641
:10143000F4012DB73EB7285F3F4F0FB6F8943EBF7B
:101440000FBE2DBF80E090E08615970551F02191E9
:10145000DC01AE0DBF1DA252BD4F12962C9301961A
:10146000F3CFC80ED91E0FB6F894BEBE0FBEADBEE8
:1014700076013FEFE31AF30AF701E252FD4F8EE2E5
:10148000808320E030E04AE754E46091D10270911B
:10149000D2028091D3029091D4020E94CC150E9476
:1014A0001C159B01CB014091000150910101452B7E
:1014B00059F4892B49F0760142E0E40EF11CF70162
:1014C000E252FD4F8DE28083C901C12CD12C4AE04C
:1014D000A42EB12CF60131961816190634F4B50174
:1014E0000E943916CB016F01F5CF8DB79EB78E1BC9
:1014F0009F0B0FB6F8949EBF0FBE8DBF4DB75EB762
:101500004F5F5F4F5A013F932F9380E891E09F9385
:101510008F93FF93EF93BF924F930E948916D5014B
:101520008DB79EB708960FB6F8949EBF0FBE8DBFBD
:1015300080E090E0FC01EE0DFF1D8C159D0531F063
:101540002D91E252FD4F21830196F4CFE252FD4FDF
:101550008EE281838091CF02805D82838EE38383DC
:1015600014820FB6F8941EBF0FBE0DBFDF91CF914E
:101570001F910F91FF90EF90DF90CF90BF90AF90B1
:101580009F908F907F906F905F9008954F925F92A1
:101590006F927F928F929F92AF92BF92CF92DF9283
:1015A000EF92FF92809106019091070181309105A1
:1015B000C9F540E050E068E472E44093C2045093FF
:1015C000C3046093C4047093C50440E050E06CE829
:1015D00072E44093CC045093CD046093CE04709396
:1015E000CF0440E050E060E671E44093C8045093BB
:1015F000C9046093CA047093CB049093D30480937E
:10160000D2049093C7048093C6049093D50480932A
:10161000D4049093D1048093D004109207011092C7
:101620000601B9C08090C2049090C304A090C40485
:10163000B090C504C0900201D0900301E090040175
:10164000F0900501A7019601C501B4010E9438146C
:101650002DEC3CEC4CEC5DE30E94CC1526E636E626
:1016600046E650E40E94AA149B01AC016091C804B4
:101670007091C9048091CA049091CB040E943814DF
:101680002B013C0120E030E046E953E40E94C715FD
:1016900018164CF04092C8045092C9046092CA04D3
:1016A0007092CB040CC080E090E0A6E9B3E4809394
:1016B000C8049093C904A093CA04B093CB0480914A
:1016C0000001909101010097D9F42DEC3CEC4CEC19
:1016D0005DE36091D1027091D2028091D30290912A
:1016E000D4020E94CC1526E636E646E650E40E9477
:1016F000CC159B01AC01C501B4010E9438141CC07B
:10170000019711F52DEC3CEC4CEC5DE36091D102BE
:101710007091D2028091D3029091D4020E94CC1594
:1017200026E636E646E650E40E94CC159B01AC0165
:10173000C501B4010E9439146093C2047093C304BC
:101740008093C4049093C50420E030E048EC52E458
:10175000C701B6010E94A51487FF11C021E73DE330
:101760004AE85FE3C701B6010E94391460930201A1
:101770007093030180930401909305010CC080E0F5
:1017800090E0A8ECB2E48093020190930301A0934F
:101790000401B0930501FF90EF90DF90CF90BF90D0
:1017A000AF909F908F907F906F905F904F90089533
:1017B00060EA76E881E090E00C94F80F8091FF02F7
:1017C000811115C061E08091020390910303892B80
:1017D00009F060E0862F90E090930303809302036A
:1017E000809108010E94BD0D81E00C9406111092B9
:1017F000FF02089561E0809108010E94810D26E0BA
:1018000040E052EC61E070E08DE094E00C94C20E98
:101810000E941D0D0E94FA0B80E00E945F1080E084
:1018200090E008950895089508950895F894FC01AE
:1018300001900020E9F73197AF01481B590BBC011B
:101840008DE094E00E94B60F8AE29EE0892B11F0B1
:101850000E942A0E789408950F931F93CF93DF93DD
:1018600000D0CDB7DEB78DB79EB79A8389838091BC
:10187000FD029091FE02892B39F489819A8190931F
:10188000FE028093FD021BC02091FD023091FE02FA
:1018900089819A812817390791F061E080910801C8
:1018A0000E94BD0DF89484E991E00E94160C0AE2B2
:1018B0001EE001151105E9F30E942A0EFACFF894F3
:1018C0008AE29EE0892B11F00E942A0E78940F90F4
:1018D0000F90DF91CF911F910F910895CF92DF92DA
:1018E000EF92FF92809101038F5F809301030E942A
:1018F000C60A0E943C08C090B404D090B504E090A1
:10190000B604F090B70420E030E040E85FE3C701A0
:10191000B6010E94A51487FF03C080EB91E01CC0B4
:1019200020E030E040E85FE3C701B6010E94C71540
:1019300087FD15C020E030E040E05FE36091AE0439
:101940007091AF048091B0049091B1040E94A514ED
:1019500018162CF089EC91E00E94160C1AC06091C8
:10196000AE047091AF048091B0049091B1040E94D4
:1019700001080E9436010E948D086EED72E08DE034
:1019800094E00E94F60F6DEA71E08DE094E00E9411
:10199000F60F809100038F5F80930003FF90EF901C
:1019A000DF90CF9008951F920F920FB60F921124DF
:1019B0002F933F938F939F93AF93BF938091050491
:1019C00090910604A0910704B0910804309104049A
:1019D00023E0230F2D3720F40196A11DB11D05C072
:1019E00026E8230F0296A11DB11D209304048093C5
:1019F000050490930604A0930704B0930804809113
:101A0000090490910A04A0910B04B0910C04019672
:101A1000A11DB11D8093090490930A04A0930B04A7
:101A2000B0930C04BF91AF919F918F913F912F91F3
:101A30000F900FBE0F901F901895789484B5826018
:101A400084BD84B5816084BD85B5826085BD85B562
:101A5000816085BDEEE6F0E0808181608083E1E811
:101A6000F0E0108280818260808380818160808349
:101A7000E0E8F0E0808181608083E1EBF0E080814C
:101A800084608083E0EBF0E0808181608083EAE71E
:101A9000F0E08081846080838081826080838081A7
:101AA000816080838081806880831092C100089566
:101AB000833081F028F4813099F08230A1F00895CC
:101AC0008730A9F08830B9F08430D1F4809180005B
:101AD0008F7D03C0809180008F7780938000089570
:101AE00084B58F7702C084B58F7D84BD08958091C1
:101AF000B0008F7703C08091B0008F7D8093B000DD
:101B00000895CF93DF9390E0FC01E458FF4F2491B8
:101B1000FC01E057FF4F8491882361F190E0880F2A
:101B2000991FFC01E255FF4FC591D491FC01EC5582
:101B3000FF4FA591B491611109C09FB7F8948881B6
:101B4000209582238883EC912E230BC0623061F4B0
:101B50009FB7F8943881822F809583238883EC91F6
:101B60002E2B2C939FBF06C08FB7F894E8812E2BA5
:101B700028838FBFDF91CF9108951F93CF93DF9379
:101B8000282F30E0F901E859FF4F8491F901E4581A
:101B9000FF4FD491F901E057FF4FC491CC23C9F016
:101BA000162F81110E94580DEC2FF0E0EE0FFF1F51
:101BB000EC55FF4FA591B4918FB7F894111105C062
:101BC0009C91ED2FE095E92302C0EC91ED2BEC9375
:101BD0008FBFDF91CF911F910895FC01918D228DD0
:101BE000892F90E0805C9F4F821B91098F7399270A
:101BF0000895FC01918D828D981731F0828DE80F48
:101C0000F11D858D90E008958FEF9FEF0895FC0101
:101C1000918D828D981761F0828DDF01A80FB11D23
:101C20005D968C91928D9F5F9F73928F90E0089547
:101C30008FEF9FEF0895FC01538D448D252F30E0E9
:101C4000842F90E0821B930B541710F0CF960895C9
:101C5000019708958FE79FE0892B49F080E090E09D
:101C6000892B29F00E947F0F81110C9400000895A8
:101C7000FC01848DDF01A80FB11DA35ABF4F2C9129
:101C8000848D90E001968F739927848FA689B789F8
:101C90002C93A089B1898C9180648C93938D848DD1
:101CA000981306C00288F389E02D80818F7D8083A0
:101CB0000895CF93DF93EC01888D8823C9F0EA89DA
:101CC000FB89808185FD05C0A889B9898C9186FD35
:101CD0000FC00FB607FCF5CF808185FFF2CFA88932
:101CE000B9898C9185FFEDCFCE010E94380EE7CFE8
:101CF000DF91CF910895EF92FF920F931F93CF93AF
:101D0000DF93EC0181E0888F9B8D8C8D981305C04B
:101D1000E889F989808185FD24C0F62E0B8D10E0BD
:101D20000F5F1F4F0F731127E02E8C8DE8120CC030
:101D30000FB607FCFACFE889F989808185FFF5CFD6
:101D4000CE010E94380EF1CF8B8DFE01E80FF11D00
:101D5000E35AFF4FF0820B8FEA89FB898081806212
:101D600007C0EE89FF896083E889F98980818064F2
:101D7000808381E090E0DF91CF911F910F91FF90E0
:101D8000EF900895CF92DF92EF92FF921F93CF933F
:101D9000DF93EC016A017B01122FE889F98982E067
:101DA00080834115514E61057105B1F060E079E025
:101DB0008DE390E0A70196010E944D16DA01C9015A
:101DC0000197A109B109B695A79597958795AC019B
:101DD000411580E15807A8F0E889F989108260E888
:101DE00074E88EE190E0A70196010E944D16BA01B9
:101DF000A901415051096109710976956795579577
:101E00004795EC85FD855083EE85FF854083188ED0
:101E1000EC89FD891083EA89FB8980818061808358
:101E2000EA89FB89808188608083EA89FB898081D7
:101E300080688083EA89FB8980818F7D8083DF9140
:101E4000CF911F91FF90EF90DF90CF9008951F9258
:101E50000F920FB60F9211242F938F939F93EF93AE
:101E6000FF93E0911D04F0911E048081E091230412
:101E7000F091240482FD12C09081809126048F5F2E
:101E80008F7320912704821751F0E0912604F0E02F
:101E9000E35FFB4F958F8093260401C08081FF9103
:101EA000EF919F918F912F910F900FBE0F901F90E8
:101EB00018951F920F920FB60F9211242F933F93F4
:101EC0004F935F936F937F938F939F93AF93BF9342
:101ED000EF93FF938DE094E00E94380EFF91EF9115
:101EE000BF91AF919F918F917F916F915F914F9132
:101EF0003F912F910F900FBE0F901F9018958DE07E
:101F000094E00E94ED0D21E0892B09F420E0822F5E
:101F10000895EDE0F4E01382128288EE93E0A0E0F1
:101F2000B0E084839583A683B78388E792E09183AA
:101F3000808385EC90E09587848784EC90E0978798
:101F4000868780EC90E0918B808B81EC90E0938B86
:101F5000828B82EC90E0958B848B86EC90E0978B63
:101F6000868B118E128E138E148E0895CF92DF926F
:101F7000EF92FF920F931F93CF93DF936C017A013F
:101F80008B01C0E0D0E0CE15DF0589F0D8016D915E
:101F90008D01D601ED91FC910190F081E02DC601FB
:101FA0000995892B11F47E0102C02196ECCFC7015F
:101FB000DF91CF911F910F91FF90EF90DF90CF9025
:101FC00008956115710579F0FB0101900020E9F792
:101FD0003197AF01461B570BDC01ED91FC9102805C
:101FE000F381E02D099480E090E008950C94E10FD6
:101FF0001092810010928000109282001092850051
:1020000010928400611520E172078105910548F462
:10201000E4E0660F771FEA95E1F76150710981E00E
:1020200042C0611520E872078105910530F4660F02
:10203000771F6150710982E036C06C3F2FEF720745
:1020400023E08207910570F4DC01CB0142E0B695F4
:10205000A795979587954A95D1F7BC01615071096D
:1020600083E021C06115710520E18207910570F4BC
:10207000DC01CB0134E0B695A795979587953A9505
:10208000D1F7BC016150710984E00DC0DC01CB01C6
:1020900026E0B695A795979587952A95D1F7BC0127
:1020A0006150710985E092E096BB90936F00709348
:1020B00089006093880088608093810008954F9222
:1020C0005F926F927F928F929F92AF92BF92CF92C8
:1020D000DF92EF92FF920F931F93CF93DF9300D085
:1020E000CDB7DEB70091E8011091E9019FB7F894F0
:1020F000D80118962D913C911997232B09F06DC0AA
:10210000F82E8EE094E19A838983C090EC01D09000
:10211000ED0181E090E019969C938E9318971A96A2
:10212000FC920E94D80B4090EE015090EF014801C4
:10213000B2E08B0E911CF20184E0F89EE00DF11DDF
:102140001124A280B380E12CF12C2F01662463942A
:10215000712CEA14FB0431F1D201ED91FC91C7011D
:10216000880F991FE80FF91F40815181DA011496F9
:10217000ED91FC91159780818F5F808373826282DD
:10218000F80164817581DB018D919C911197958394
:1021900084831D921C92C4010E942712BFEFEB1A88
:1021A000FB0AD7CFF80180859185019721F482E061
:1021B00090E091878087D80118968D919C9119970E
:1021C000029779F4F60162817381AB01C6010E9426
:1021D000D000C6010E946A1204C09FBF81E090E057
:1021E00002C080E090E00F900F90DF91CF911F919F
:1021F0000F91FF90EF90DF90CF90BF90AF909F90A6
:102200008F907F906F905F904F900895FF920F9303
:102210001F93CF93DF9390E02091E6013091E70187
:1022200082179307F0F4E091E401F091E501880F43
:10223000991FE80FF91F00811181F80187819085AE
:10224000029778F4FFB6F894C8010E945812EC0186
:10225000892B29F4B80182EE91E00E949912FFBE09
:1022600002C0C3E0D0E0CE01DF91CF911F910F916A
:10227000FF900895DC011496ED91FC91159784E090
:1022800090E0938382830895EC01EC81FD8181814C
:1022900024E030E0338322838F3F09F07894E9858E
:1022A000FA850995E091E801F091E901108A8785A6
:1022B000882319F0178685858FBF8189882311F0BF
:1022C000118A78948FB7F89466EF73E18A819B81C5
:1022D0000E94F0000F931F93CF93DF93CFB7F89432
:1022E00082EE91E00E945F13CFBF0091E801109150
:1022F000E901C091EA01D091EB01F8018085918557
:10230000029729F42097C9F3FE010995F6CF809131
:10231000EC019091ED01DF91CF911F910F910C9401
:10232000DB130F931F93CF93DF93EC01A881B98147
:10233000EB01E881F9811696CD91DC9117972097F2
:10234000B1F08A819B813097E1F1EC010C811D8114
:1023500022813381E9014C815D81E8013981EA0103
:102360002981321770F522E030E0E8010BC0309788
:1023700041F1EC018C819D81EC014C815D8122E079
:1023800030E0EA013B832A8320813181EB013983EC
:102390002883C281D3814C815D8116962D913C9119
:1023A0001797318320831796FC93EE931697CD935E
:1023B000DC932C85FA013181321728F4FA0121834C
:1023C00002C080E090E0DF91CF911F910F910895BE
:1023D0000F931F93CF93DF93DB011296ED91FC9146
:1023E0001397A481B5814115510511F0238502C0D1
:1023F00011962C91EC01E881F981A0E0B0E03097D2
:1024000091F0C281D3810C811D814115510511F0DC
:102410003B8502C0E8013981321728F0DF010190C5
:10242000F081E02DECCF109729F06D937C9380E044
:1024300090E005C0DC016D937C9381E090E0EB01BE
:10244000F983E883DF91CF911F910F910895FB01EC
:102450005383428341E050E00C94E811EF92FF92E5
:102460000F931F93CF93DF938C01FC01C081D18127
:10247000EE80FF80F701808191819F838E83C80168
:102480000E949111EE81FF81892B51F4309719F050
:102490008281938103C0F801848195819983888327
:1024A000C701DF91CF911F910F91FF90EF90089599
:1024B000DC011496ED91FC91159790811D968C91FD
:1024C000981728F49F5F908380E090E0089584E05F
:1024D00090E00895DC011496ED91FC9115971B9600
:1024E0008C918183808181508083811103C013820C
:1024F0001282089581E090E0938382830895209171
:10250000E4019091E501E22FF92FE80FF11DE80FAA
:10251000F11D60817181DB011496ED91FC9115979D
:1025200080818F5F808340E050E082EE91E00C94E8
:102530007A13CF93DF93DB011496CD91DC9115973D
:10254000E091E801F091E90180819181DC0114962C
:102550002D913C911597D90111965C914981A481E7
:10256000B581541718F54D915C91119755834483AB
:1025700042E050E0E9015B834A8313967C936E93BB
:1025800012972681378111963C932E93B783A683A9
:1025900071836083DB011496ED91FC91159717828E
:1025A00016820E94B21381E090E01AC08A819B815A
:1025B000892B31F481E090E09B838A831F821E8205
:1025C0008D919C9111979583848311961C921E92F4
:1025D000AB01BD01CF0102960E94271280E090E07E
:1025E000DF91CF910895AF92BF92CF92DF92EF9299
:1025F000FF920F931F93CF93DF93C091E801D09187
:10260000E901FE01E190F1906F01F701048115816C
:10261000FB01F182E082F801828193810497D9F471
:10262000B60188EE91E00E942E125C01C880D9802C
:10263000EC14FD0421F0C7010E946A1204C0F801E5
:102640009081915090838C819D81F501918380834D
:10265000BD82AC8228C06E817F81FB018081918127
:102660009F838E83F7018385F801818381E090E069
:10267000938382838081813011F417821682A701AF
:10268000C6010E942712B60188EE91E00E949111C6
:10269000892B39F4EE81FF81C280D380D982C88230
:1026A00002C0C880D980C601DF91CF911F910F91E0
:1026B000FF90EF90DF90CF90BF90AF900895CF93B1
:1026C000DF93C091E801D091E901BE016E5F7F4FB9
:1026D00088EE91E00E949111009739F0688179812C
:1026E0000E94B21381E090E002C080E090E0DF91B0
:1026F000CF910895CF93DF93E091E801F091E90144
:102700008081918126813781EC01AC81BD81129657
:10271000CD91DC911397249731F4C2E0D0E0139669
:10272000DC93CE931297718360834115510569F450
:10273000A481B5814D915C91119755834483119685
:102740001C921E92B783A68302C0578346830680DD
:10275000F781E02D7383628331832083DF91CF91F2
:102760000C94B213FB01A481B58112962D913C917A
:102770001397DC0112964D915C91139762817381DE
:10278000CF012230310511F40C9488000C94D00054
:10279000CB01DB011496ED91FC91159722813381D9
:1027A00012966D917C9113972230310511F40C949F
:1027B000A8000C94C800DC0112966D917C911397CF
:1027C000ED91FC9140815181DB01ED91FC912289D9
:1027D00033892115310529F4DB01ED93FC930C9429
:1027E000A80024173507C1F3F901F1CFCF93DF9388
:1027F00000D0CDB7DEB7BE016F5F7F4F82EE91E0B4
:102800000E94F312BC0189819A810E94C8130F9023
:102810000F90DF91CF910895F894FFCFE8E10895EC
:102820008F939F9380E00E9418149F918F91189529
:102830001F920F920FB60F9211242F933F934F9335
:102840005F936F937F93AF93BF93EF93FF930E9438
:102850007F12FF91EF91BF91AF917F916F915F9147
:102860004F913F912F910F900FBE0F901F900895A1
:102870005058BB27AA270E9450140C948D150E9413
:102880007F1538F00E94861520F039F49F3F19F427
:1028900026F40C947C150EF4E095E7FB0C94761569
:1028A000E92F0E949E1558F3BA1762077307840731
:1028B000950720F079F4A6F50C94C0150EF4E09578
:1028C0000B2EBA2FA02D0B01B90190010C01CA01EA
:1028D000A0011124FF27591B99F0593F50F4503E95
:1028E00068F11A16F040A22F232F342F4427585F87
:1028F000F3CF469537952795A795F0405395C9F79F
:102900007EF41F16BA0B620B730B840BBAF0915056
:10291000A1F0FF0FBB1F661F771F881FC2F70EC0F5
:10292000BA0F621F731F841F48F4879577956795C8
:10293000B795F7959E3F08F0B0CF9395880F08F0B4
:102940009927EE0F9795879508950E94521508F4E0
:1029500081E008950E94BE140C948D150E94861586
:1029600058F00E947F1540F029F45F3F29F00C9445
:10297000761551110C94C1150C947C150E949E156E
:1029800068F39923B1F3552391F3951B550BBB279E
:10299000AA2762177307840738F09F5F5F4F220FE3
:1029A000331F441FAA1FA9F335D00E2E3AF0E0E8DA
:1029B00032D091505040E695001CCAF72BD0FE2F24
:1029C00029D0660F771F881FBB1F261737074807B8
:1029D000AB07B0E809F0BB0B802DBF01FF27935870
:1029E0005F4F3AF09E3F510578F00C9476150C94A9
:1029F000C1155F3FE4F3983ED4F3869577956795CC
:102A0000B795F7959F5FC9F7880F911D96958795A4
:102A100097F90895E1E0660F771F881FBB1F6217C3
:102A200073078407BA0720F0621B730B840BBA0B81
:102A3000EE1F88F7E09508950E9423156894B11160
:102A40000C94C11508950E94A61588F09F5798F020
:102A5000B92F9927B751B0F0E1F0660F771F881FA3
:102A6000991F1AF0BA95C9F714C0B13091F00E94BD
:102A7000C015B1E008950C94C015672F782F8827F2
:102A8000B85F39F0B93FCCF3869577956795B395E4
:102A9000D9F73EF490958095709561957F4F8F4F53
:102AA0009F4F0895990F0008550FAA0BE0E8FEEF1D
:102AB00016161706E807F907C0F012161306E40702
:102AC000F50798F0621B730B840B950B39F40A26FB
:102AD00061F0232B242B252B21F408950A2609F4D9
:102AE000A140A6958FEF811D811D089597F99F67DD
:102AF00080E870E060E008959FEF80EC0895002486
:102B00000A941616170618060906089500240A9452
:102B100012161306140605060895092E0394000CD8
:102B200011F4882352F0BB0F40F4BF2B11F460FF67
:102B300004C06F5F7F4F8F4F9F4F089557FD905890
:102B4000440F551F59F05F3F71F04795880F97FB71
:102B5000991F61F09F3F79F087950895121613062B
:102B60001406551FF2CF4695F1DF08C0161617065A
:102B70001806991FF1CF869571056105089408958F
:102B8000E894BB2766277727CB0197F908950E9421
:102B9000521508F48FEF08950E94DF150C948D15DF
:102BA0000E947F1538F00E94861520F0952311F0C1
:102BB0000C9476150C947C1511240C94C1150E946C
:102BC0009E1570F3959FC1F3950F50E0551F629FBE
:102BD000F001729FBB27F00DB11D639FAA27F00D76
:102BE000B11DAA1F649F6627B00DA11D661F829F9D
:102BF0002227B00DA11D621F739FB00DA11D621F82
:102C0000839FA00D611D221F749F3327A00D611D9E
:102C1000231F849F600D211D822F762F6A2F112480
:102C20009F5750409AF0F1F088234AF0EE0FFF1FB3
:102C3000BB1F661F771F881F91505040A9F79E3F0A
:102C4000510580F00C9476150C94C1155F3FE4F3A8
:102C5000983ED4F3869577956795B795F795E79560
:102C60009F5FC1F7FE2B880F911D9695879597F969
:102C7000089597FB072E16F4009407D077FD09D02E
:102C80000E946F1607FC05D03EF4909581959F4FEA
:102C90000895709561957F4F0895A1E21A2EAA1BA1
:102CA000BB1BFD010DC0AA1FBB1FEE1FFF1FA217FC
:102CB000B307E407F50720F0A21BB30BE40BF50BF9
:102CC000661F771F881F991F1A9469F76095709582
:102CD000809590959B01AC01BD01CF010895AA1B81
:102CE000BB1B51E107C0AA1FBB1FA617B70710F0F7
:102CF000A61BB70B881F991F5A95A9F78095909529
:102D0000BC01CD010895EE0FFF1F0590F491E02D59
:102D10000994AEE0B0E0EFE8F6E10C9445190D89B6
:102D20001E898F89988D26E02C831A83098397FF4B
:102D300002C080E090E801979E838D83AE01455EDE
:102D40005F4F698D7A8DCE0101960E94B9164D8133
:102D50005E8157FD0AC02F813885421753070CF456
:102D60009A01F801E20FF31F10822E96E4E00C9412
:102D70006119ACE0B0E0EFEBF6E10C9437197C019F
:102D80006B018A01FC0117821682838181FFBDC11C
:102D9000CE0101964C01F7019381F60193FD8591D7
:102DA00093FF81916F01882309F4ABC1853239F417
:102DB00093FD859193FF81916F01853229F4B701CD
:102DC00090E00E94A118E7CF512C312C20E0203256
:102DD000A0F48B3269F030F4803259F0833269F418
:102DE00020612CC08D3239F0803339F4216026C047
:102DF0002260246023C0286021C027FD27C030ED59
:102E0000380F3A3078F426FF06C0FAE05F9E300DA6
:102E10001124532E13C08AE0389E300D1124332E16
:102E200020620CC08E3221F426FD6BC1206406C0E6
:102E30008C3611F4206802C0883641F4F60193FD07
:102E4000859193FF81916F018111C1CF982F9F7D53
:102E50009554933028F40C5F1F4FFFE3F9830DC0A6
:102E6000833631F0833771F0833509F05BC022C0BF
:102E7000F801808189830E5F1F4F44244394512CB5
:102E8000540115C03801F2E06F0E711CF801A080EA
:102E9000B18026FF03C0652D70E002C06FEF7FEFA9
:102EA000C5012C870E9496182C0183012C852F7751
:102EB000222E17C03801F2E06F0E711CF801A080BD
:102EC000B18026FF03C0652D70E002C06FEF7FEF79
:102ED000C5012C870E948B182C012C852068222E7E
:102EE000830123FC1BC0832D90E048165906B0F4E3
:102EF000B70180E290E00E94A1183A94F4CFF50166
:102F000027FC859127FE81915F01B70190E00E9427
:102F1000A11831103A94F1E04F1A510841145104AC
:102F200071F7E5C0843611F0893639F5F80127FFCD
:102F300007C060817181828193810C5F1F4F08C03F
:102F400060817181072E000C880B990B0E5F1F4F5B
:102F50002F76722E97FF09C0909580957095619598
:102F60007F4F8F4F9F4F2068722E2AE030E0A401E0
:102F70000E94D918A82EA81844C0853729F42F7E9E
:102F8000B22E2AE030E025C0F22FF97FBF2E8F3617
:102F9000C1F018F4883579F0B4C0803719F088375B
:102FA00021F0AFC02F2F2061B22EB4FE0DC08B2DAB
:102FB0008460B82E09C024FF0AC09F2F9660B92EE6
:102FC00006C028E030E005C020E130E002C020E18A
:102FD00032E0F801B7FE07C0608171818281938180
:102FE0000C5F1F4F06C06081718180E090E00E5F32
:102FF0001F4FA4010E94D918A82EA818FB2DFF77F7
:103000007F2E76FE0BC0372D3E7FA51450F474FE44
:103010000AC072FC08C0372D3E7E05C0BA2C372D81
:1030200003C0BA2C01C0B52C34FF0DC0FE01EA0D5F
:10303000F11D8081803311F4397E09C032FF06C052
:10304000B394B39404C0832F867809F0B39433FD0E
:1030500013C030FF06C05A2CB31418F4530C5B187D
:10306000B32CB31468F4B70180E290E03C870E946F
:10307000A118B3943C85F5CFB31410F43B1801C0EC
:10308000312C34FF12C0B70180E390E03C870E94EE
:10309000A1183C8532FF17C031FD03C088E790E0DE
:1030A00002C088E590E0B7010CC0832F867859F004
:1030B00031FF02C08BE201C080E237FD8DE2B70133
:1030C00090E00E94A118A51438F4B70180E390E0C5
:1030D0000E94A1185A94F7CFAA94F401EA0DF11DA9
:1030E0008081B70190E00E94A118A110F5CF332094
:1030F00009F451CEB70180E290E00E94A1183A9401
:10310000F6CFF7018681978102C08FEF9FEF2C9653
:10311000E2E10C945319FC010590615070400110DC
:10312000D8F7809590958E0F9F1F0895FC016150F0
:10313000704001900110D8F7809590958E0F9F1FD9
:1031400008950F931F93CF93DF93FB01238121FDFC
:1031500003C08FEF9FEF28C022FF16C04681578122
:10316000248135814217530744F4A081B1819D0128
:103170002F5F3F4F318320838C93268137812F5FD0
:103180003F4F3783268310C0EB01092F182F00848F
:10319000F185E02D0995892BE1F68E819F810196BD
:1031A0009F838E83812F902FDF91CF911F910F915D
:1031B0000895FA01AA27283051F1203181F1E894CD
:1031C0006F936E7F6E5F7F4F8F4F9F4FAF4FB1E01A
:1031D0003ED0B4E03CD0670F781F891F9A1FA11D15
:1031E000680F791F8A1F911DA11D6A0F711D811D16
:1031F000911DA11D20D009F468943F912AE0269FDB
:1032000011243019305D3193DEF6CF010895462F39
:103210004770405D4193B3E00FD0C9F7F6CF462F1A
:103220004F70405D4A3318F0495D31FD4052419383
:1032300002D0A9F7EACFB4E0A69597958795779540
:103240006795BA95C9F700976105710508959B01C7
:10325000AC010A2E06945795479537952795BA9550
:10326000C9F7620F731F841F951FA01D08952F9229
:103270003F924F925F926F927F928F929F92AF9206
:10328000BF92CF92DF92EF92FF920F931F93CF9353
:10329000DF93CDB7DEB7CA1BDB0B0FB6F894DEBFEA
:1032A0000FBECDBF09942A88398848885F846E8410
:1032B0007D848C849B84AA84B984C884DF80EE805A
:1032C000FD800C811B81AA81B981CE0FD11D0FB663
:1032D000F894DEBF0FBECDBFED010895F894FFCF87
:1032E00002000000204201000D005A0200001C01F3
:1032F00000000000FF0000000000000020010000AE
:1033000024010000280100002C0100003001000011
:10331000000000000080000000000000000000012C
:10332000000000000000000000020000000000009B
:10333000000000010000000000000000000100008B
:10334000000000000000000100000000000000007C
:1033500001000400000000000000030483030000DB
:103360002564005441534B2025642053503C257064
:103370003E0D0A0054657374204661696C656421D2
:1033800021212C206C696E653A313739200D0A00F5
:10339000436172206861732073746F70706564207C
:1033A0002121212121210D0A0043617220686173CE
:1033B0002063726173686564202121212121210D20
:1033C0000A00D604F80107000A012C0C5A02F20187
:1033D0000100F6010100140206021402220230026A
:1033E0003E024C025A0270027E013401000200DEED
:1033F0000B80800168027A013E010100006E0C0121
:1034000001016C027C014801020100120C02020160
:1034100070027E015201030000130C0101017002D1
:103420007E015C01040000140C01010170027E01A8
:103430006601050000150C01010170027E0170019A
:103440000603006A11000001840380000403800069
:1034500000000000000000007B0EB60F1B0E590E8E
:06346000ED0D070EF90D51
:00000001FF
