:100000000C945D000C9485000C9485000C94850084
:100010000C9485000C9485000C9485000C9485004C
:100020000C9485000C9485000C9485000C94E309D5
:100030000C9485000C9485000C9485000C9485002C
:100040000C94A6020C9485000C94FA040C942C05D4
:100050000C9485000C9485000C9485000C9485000C
:100060000C9485000C94850000000008000201003B
:100070000003040700000000000000000102040863
:100080001020408001020408102001020408102002
:10009000040404040404040402020202020203032E
:1000A0000303030300000000250028002B000000CC
:1000B0000000240027002A005C0511241FBECFEF9A
:1000C000D8E0DEBFCDBF12E0A0E0B1E0EAEDF8E19C
:1000D00002C005900D92A238B107D9F724E0A2E83A
:1000E000B2E001C01D92A134B207E1F710E0CDE506
:1000F000D0E004C02197FE010E94650CCC35D107E9
:10010000C9F70E9465010C946B0C0C94DF09000088
:100110002F923F924F925F926F927F928F929F9217
:10012000AF92BF92CF92DF92EF92FF920F931F9305
:10013000CF93DF93E42FF52F419050804F925F9241
:10014000E42FF52F4DB65EB6419250820C94A80074
:10015000E62FF72F419050804DBE5EBE5F904F90CE
:10016000E62FF72F41925082DF91CF911F910F918F
:10017000FF90EF90DF90CF90BF90AF909F908F90C7
:100180007F906F905F904F903F902F900C940D0751
:10019000E62FF72F419150814DBF5EBF0C9417079A
:1001A0002F923F924F925F926F927F928F929F9287
:1001B000AF92BF92CF92DF92EF92FF920F931F9375
:1001C000CF93DF93E42FF52F419050804F925F92B1
:1001D000E42FF52F4DB65EB6419250820C94C800C4
:1001E000E82FF92F419150814DBF5EBFE62FF72FC9
:1001F00009940000CF92DF92EF92FF926B017C0195
:1002000080918202811104C081E08093820220C02B
:10021000A7019601609187027091880280918902FE
:1002200090918A020E940B0A2DEC3CEC4CEC5DE3B1
:100230000E94780A26E636E646E650E40E94AE0BB7
:100240006093830270938402809385029093860268
:10025000C0928702D0928802E0928902F0928A02CC
:10026000FF90EF90DF90CF90089560E472E48FE00C
:1002700090E00C94CB0580918F02811115C061E054
:100280008091980290919902892B09F060E0862F65
:1002900090E09093990280939802809105010E94CA
:1002A000900381E00C94D90610928F02089561E0CA
:1002B000809105010E94540326E040E052EC61E089
:1002C00070E083EA93E00C9495040E94F0020E948F
:1002D000570180E00E94320680E090E00895F89493
:1002E000FC0101900020E9F73197AF01481B590B41
:1002F000BC0183EA93E00E9489058DEF93E0892B8E
:1003000011F00E94FD03789408950F931F93CF93EB
:10031000DF9300D0CDB7DEB78DB79EB79A838983C0
:1003200080918D0290918E02892B39F489819A8176
:1003300090938E0280938D021BC020918D0230918C
:100340008E0289819A812817390791F061E08091A6
:1003500005010E949003F8948EE891E00E946F01DD
:100360000DEF13E001151105E9F30E94FD03FACF2B
:10037000F8948DEF93E0892B11F00E94FD0378949F
:100380000F900F90DF91CF911F910F910895CF9310
:10039000809197028F5F8093970260910101709125
:1003A000020180910301909104010E94FA00C09122
:1003B00000016C2F70E080E090E00E94220B2DEC99
:1003C0003CEC4CEC5DE30E94AE0B26E636E646E6DE
:1003D00050E40E94780A9B01AC0160910101709188
:1003E000020180910301909104010E940B0A609325
:1003F0000101709302018093030190930401CF5F88
:10040000C09300018AEA91E00E946F0182E00E949D
:10041000D906809195028F5F80939502CF910895C0
:10042000CF92DF92EF92FF920F931F93CF93DF93C0
:10043000CDB7DEB72A970FB6F894DEBF0FBECDBF9B
:100440008EEB91E00E946F01809196028F5F809306
:10045000960260918302709184028091850290914E
:1004600086020E94EA0A8B0170938C0260938B02D1
:1004700020E030E0EAE0F0E06115710539F02F5F2F
:100480003F4FCB01BF010E941B0CF6CFCE0101965E
:100490007C01FC01E20FF31F8AE0C82ED12CEE157F
:1004A000FF0549F0C801B6010E941B0C8B0190E3C7
:1004B000980F9293F4CFDF01A20FB31F1C92BF01DC
:1004C00083EA93E00E94C90567EA71E083EA93E05A
:1004D0000E94C905809194028F5F809394022A96AE
:1004E0000FB6F894DEBF0FBECDBFDF91CF911F9145
:1004F0000F91FF90EF90DF90CF90089586EC91E000
:100500000E946F01809193028F5F8093930284E039
:100510000E94D906809192028F5F80939202089583
:100520008EEC91E00E946F01809191028F5F809329
:10053000910285E00C94D90686ED91E00E946F014E
:10054000809190028F5F8093900208951F920F9286
:100550000FB60F9211242F933F938F939F93AF93D6
:10056000BF9380919B0390919C03A0919D03B091B8
:100570009E0330919A0323E0230F2D3720F4019638
:10058000A11DB11D05C026E8230F0296A11DB11DB6
:1005900020939A0380939B0390939C03A0939D03C5
:1005A000B0939E0380919F039091A003A091A1031B
:1005B000B091A2030196A11DB11D80939F0390935A
:1005C000A003A093A103B093A203BF91AF919F9109
:1005D0008F913F912F910F900FBE0F901F90189504
:1005E000789484B5826084BD84B5816084BD85B50E
:1005F000826085BD85B5816085BDEEE6F0E08081D5
:1006000081608083E1E8F0E01082808182608083F5
:10061000808181608083E0E8F0E080818160808378
:10062000E1EBF0E0808184608083E0EBF0E08081AA
:1006300081608083EAE7F0E080818460808380814C
:1006400082608083808181608083808180688083F4
:100650001092C1000895833081F028F4813099F020
:100660008230A1F008958730A9F08830B9F0843045
:10067000D1F4809180008F7D03C0809180008F77BE
:1006800080938000089584B58F7702C084B58F7DF4
:1006900084BD08958091B0008F7703C08091B00031
:1006A0008F7D8093B0000895CF93DF9390E0FC019D
:1006B000E458FF4F2491FC01E057FF4F84918823B9
:1006C00061F190E0880F991FFC01E255FF4FC59141
:1006D000D491FC01EC55FF4FA591B491611109C073
:1006E0009FB7F8948881209582238883EC912E23EC
:1006F0000BC0623061F49FB7F8943881822F8095E7
:1007000083238883EC912E2B2C939FBF06C08FB739
:10071000F894E8812E2B28838FBFDF91CF91089525
:100720001F93CF93DF93282F30E0F901E859FF4F53
:100730008491F901E458FF4FD491F901E057FF4F3C
:10074000C491CC23C9F0162F81110E942B03EC2FEA
:10075000F0E0EE0FFF1FEC55FF4FA591B4918FB75E
:10076000F894111105C09C91ED2FE095E92302C08A
:10077000EC91ED2BEC938FBFDF91CF911F910895FA
:10078000FC01918D228D892F90E0805C9F4F821B10
:1007900091098F7399270895FC01918D828D981787
:1007A00031F0828DE80FF11D858D90E008958FEF77
:1007B0009FEF0895FC01918D828D981761F0828DD5
:1007C000DF01A80FB11D5D968C91928D9F5F9F7385
:1007D000928F90E008958FEF9FEF0895FC01538D65
:1007E000448D252F30E0842F90E0821B930B54170B
:1007F00010F0CF9608950197089582E595E0892B32
:1008000049F080E090E0892B29F00E945205811187
:100810000C9400000895FC01848DDF01A80FB11D28
:10082000A35ABF4F2C91848D90E001968F73992726
:10083000848FA689B7892C93A089B1898C91806413
:100840008C93938D848D981306C00288F389E02DD4
:1008500080818F7D80830895CF93DF93EC01888D15
:100860008823C9F0EA89FB89808185FD05C0A889B4
:10087000B9898C9186FD0FC00FB607FCF5CF80813A
:1008800085FFF2CFA889B9898C9185FFEDCFCE0184
:100890000E940B04E7CFDF91CF910895EF92FF9272
:1008A0000F931F93CF93DF93EC0181E0888F9B8D93
:1008B0008C8D981305C0E889F989808185FD24C055
:1008C000F62E0B8D10E00F5F1F4F0F731127E02ED8
:1008D0008C8DE8120CC00FB607FCFACFE889F989B5
:1008E000808185FFF5CFCE010E940B04F1CF8B8D67
:1008F000FE01E80FF11DE35AFF4FF0820B8FEA89EA
:10090000FB898081806207C0EE89FF896083E88966
:10091000F98980818064808381E090E0DF91CF91CC
:100920001F910F91FF90EF900895CF92DF92EF9279
:10093000FF921F93CF93DF93EC016A017B01122F8B
:10094000E889F98982E080834115514E610571057E
:10095000B1F060E079E08DE390E0A70196010E949C
:100960002F0CDA01C9010197A109B109B695A79524
:1009700097958795AC01411580E15807A8F0E88963
:10098000F989108260E874E88EE190E0A701960191
:100990000E942F0CBA01A901415051096109710946
:1009A0007695679557954795EC85FD855083EE853F
:1009B000FF854083188EEC89FD891083EA89FB89C5
:1009C000808180618083EA89FB898081886080835F
:1009D000EA89FB89808180688083EA89FB8980813C
:1009E0008F7D8083DF91CF911F91FF90EF90DF90FB
:1009F000CF9008951F920F920FB60F9211242F934C
:100A00008F939F93EF93FF93E091B303F091B4031F
:100A10008081E091B903F091BA0382FD12C0908108
:100A20008091BC038F5F8F732091BD03821751F0BB
:100A3000E091BC03F0E0ED55FC4F958F8093BC0333
:100A400001C08081FF91EF919F918F912F910F9025
:100A50000FBE0F901F9018951F920F920FB60F9216
:100A600011242F933F934F935F936F937F938F93B3
:100A70009F93AF93BF93EF93FF9383EA93E00E941A
:100A80000B04FF91EF91BF91AF919F918F917F9157
:100A90006F915F914F913F912F910F900FBE0F90EB
:100AA0001F90189583EA93E00E94C00321E0892BF0
:100AB00009F420E0822F0895E3EAF3E01382128222
:100AC00088EE93E0A0E0B0E084839583A683B783AB
:100AD00084E792E09183808385EC90E0958784871A
:100AE00084EC90E09787868780EC90E0918B808BF8
:100AF00081EC90E0938B828B82EC90E0958B848BE1
:100B000086EC90E0978B868B118E128E138E148E4E
:100B10000895CF92DF92EF92FF920F931F93CF939E
:100B2000DF936C017A018B01C0E0D0E0CE15DF05C8
:100B300089F0D8016D918D01D601ED91FC91019064
:100B4000F081E02DC6010995892B11F47E0102C0C8
:100B50002196ECCFC701DF91CF911F910F91FF90AC
:100B6000EF90DF90CF9008956115710579F0FB014A
:100B700001900020E9F73197AF01461B570BDC01CC
:100B8000ED91FC910280F381E02D099480E090E0EA
:100B900008950C94B4051092810010928000109278
:100BA00082001092850010928400611520E1720786
:100BB0008105910548F4E4E0660F771FEA95E1F7B7
:100BC0006150710981E042C0611520E8720781051A
:100BD000910530F4660F771F6150710982E036C0CD
:100BE0006C3F2FEF720723E08207910570F4DC0160
:100BF000CB0142E0B695A795979587954A95D1F791
:100C0000BC016150710983E021C06115710520E1CB
:100C10008207910570F4DC01CB0134E0B695A7950D
:100C2000979587953A95D1F7BC016150710984E099
:100C30000DC0DC01CB0126E0B695A7959795879569
:100C40002A95D1F7BC016150710985E092E096BB0D
:100C500090936F0070938900609388008860809300
:100C6000810008954F925F926F927F928F929F9230
:100C7000AF92BF92CF92DF92EF92FF920F931F93AA
:100C8000CF93DF9300D0CDB7DEB70091E401109190
:100C9000E5019FB7F894D80118962D913C911997CA
:100CA000232B09F06DC0F82E81EE99E09A83898399
:100CB000C090E801D090E90181E090E019969C9302
:100CC0008E9318971A96FC920E9435014090EA0183
:100CD0005090EB014801B2E08B0E911CF20184E0D0
:100CE000F89EE00DF11D1124A280B380E12CF12CBF
:100CF0002F0166246394712CEA14FB0431F1D201B4
:100D0000ED91FC91C701880F991FE80FF91F4081F1
:100D10005181DA011496ED91FC91159780818F5FD6
:100D2000808373826282F80164817581DB018D9119
:100D30009C911197958384831D921C92C4010E94FB
:100D4000FA07BFEFEB1AFB0AD7CFF8018085918530
:100D5000019721F482E090E091878087D80118966E
:100D60008D919C911997029779F4F60162817381B4
:100D7000AB01C6010E94D000C6010E943D0804C01C
:100D80009FBF81E090E002C080E090E00F900F9064
:100D9000DF91CF911F910F91FF90EF90DF90CF9057
:100DA000BF90AF909F908F907F906F905F904F908B
:100DB0000895FF920F931F93CF93DF9390E02091BC
:100DC000E2013091E30182179307F0F4E091E00132
:100DD000F091E101880F991FE80FF91F008111813F
:100DE000F80187819085029778F4FFB6F894C801DE
:100DF0000E942B08EC01892B29F4B8018EED91E0BB
:100E00000E946C08FFBE02C0C3E0D0E0CE01DF91BB
:100E1000CF911F910F91FF900895DC011496ED91F1
:100E2000FC91159784E090E0938382830895EC0110
:100E3000EC81FD81818124E030E0338322838F3F88
:100E400009F07894E985FA850995E091E401F0913B
:100E5000E501108A8785882319F0178685858FBF5D
:100E60008189882311F0118A78948FB7F89469ECFE
:100E700079E08A819B810E94F0000F931F93CF93AA
:100E8000DF93CFB7F8948EED91E00E943209CFBF87
:100E90000091E4011091E501C091E601D091E701D4
:100EA000F80180859185029729F42097C9F3FE0106
:100EB0000995F6CF8091E8019091E901DF91CF91FA
:100EC0001F910F910C94AE090F931F93CF93DF9353
:100ED000EC01A881B981EB01E881F9811696CD91E9
:100EE000DC9117972097B1F08A819B813097E1F1CF
:100EF000EC010C811D8122813381E9014C815D81EE
:100F0000E8013981EA012981321770F522E030E0E9
:100F1000E8010BC0309741F1EC018C819D81EC011F
:100F20004C815D8122E030E0EA013B832A8320810D
:100F30003181EB0139832883C281D3814C815D816A
:100F400016962D913C911797318320831796FC9329
:100F5000EE931697CD93DC932C85FA0131813217ED
:100F600028F4FA01218302C080E090E0DF91CF9164
:100F70001F910F9108950F931F93CF93DF93DB0180
:100F80001296ED91FC911397A481B58141155105FD
:100F900011F0238502C011962C91EC01E881F981B2
:100FA000A0E0B0E0309791F0C281D3810C811D8127
:100FB0004115510511F03B8502C0E8013981321716
:100FC00028F0DF010190F081E02DECCF109729F09F
:100FD0006D937C9380E090E005C0DC016D937C9381
:100FE00081E090E0EB01F983E883DF91CF911F91DD
:100FF0000F910895FB015383428341E050E00C942C
:10100000BB07EF92FF920F931F93CF93DF938C0157
:10101000FC01C081D181EE80FF80F7018081918148
:101020009F838E83C8010E946407EE81FF81892B14
:1010300051F4309719F08281938103C0F8018481C3
:10104000958199838883C701DF91CF911F910F917B
:10105000FF90EF900895DC011496ED91FC911597A7
:1010600090811D968C91981728F49F5F908380E063
:1010700090E0089584E090E00895DC011496ED91ED
:10108000FC9115971B968C91818380818150808380
:10109000811103C013821282089581E090E093834E
:1010A000828308952091E0019091E101E22FF92FD0
:1010B000E80FF11DE80FF11D60817181DB011496CD
:1010C000ED91FC91159780818F5F808340E050E027
:1010D0008EED91E00C944D09CF93DF93DB011496D4
:1010E000CD91DC911597E091E401F091E5018081CB
:1010F0009181DC0114962D913C911597D90111969F
:101100005C914981A481B581541718F54D915C918A
:1011100011975583448342E050E0E9015B834A83A1
:1011200013967C936E9312972681378111963C9388
:101130002E93B783A68371836083DB011496ED91B0
:10114000FC911597178216820E94850981E090E034
:101150001AC08A819B81892B31F481E090E09B83C6
:101160008A831F821E828D919C911197958384831F
:1011700011961C921E92AB01BD01CF0102960E94F6
:10118000FA0780E090E0DF91CF910895AF92BF928F
:10119000CF92DF92EF92FF920F931F93CF93DF9343
:1011A000C091E401D091E501FE01E190F1906F0161
:1011B000F70104811581FB01F182E082F80182814F
:1011C00093810497D9F4B60184EE91E00E9401085E
:1011D0005C01C880D980EC14FD0421F0C7010E9495
:1011E0003D0804C0F8019081915090838C819D81CD
:1011F000F50191838083BD82AC8228C06E817F819E
:10120000FB01808191819F838E83F7018385F801A3
:10121000818381E090E0938382838081813011F427
:1012200017821682A701C6010E94FA07B60184EE52
:1012300091E00E946407892B39F4EE81FF81C2801E
:10124000D380D982C88202C0C880D980C601DF910C
:10125000CF911F910F91FF90EF90DF90CF90BF90B3
:10126000AF900895CF93DF93C091E401D091E50151
:10127000BE016E5F7F4F84EE91E00E94640700978D
:1012800039F0688179810E94850981E090E002C08F
:1012900080E090E0DF91CF910895CF93DF93E091CC
:1012A000E401F091E5018081918126813781EC0193
:1012B000AC81BD811296CD91DC911397249731F4C6
:1012C000C2E0D0E01396DC93CE93129771836083D3
:1012D0004115510569F4A481B5814D915C91119737
:1012E0005583448311961C921E92B783A68302C035
:1012F000578346830680F781E02D738362833183B1
:101300002083DF91CF910C948509FB01A481B581E5
:1013100012962D913C911397DC0112964D915C91A0
:10132000139762817381CF012230310511F40C943F
:1013300088000C94D000CB01DB011496ED91FC9158
:1013400015972281338112966D917C9113972230EB
:10135000310511F40C94A8000C94C800DC0112961D
:101360006D917C911397ED91FC9140815181DB014E
:10137000ED91FC91228933892115310529F4DB0196
:10138000ED93FC930C94A80024173507C1F3F901E1
:10139000F1CFCF93DF9300D0CDB7DEB7BE016F5F43
:1013A0007F4F8EED91E00E94C608BC0189819A8131
:1013B0000E949B090F900F90DF91CF910895F894B0
:1013C000FFCFEEEB08958F939F9380E00E94EB098F
:1013D0009F918F9118951F920F920FB60F92112423
:1013E0002F933F934F935F936F937F93AF93BF93ED
:1013F000EF93FF930E945208FF91EF91BF91AF913D
:101400007F916F915F914F913F912F910F900FBE00
:101410000F901F9008955058BB27AA270E94230AB7
:101420000C94740B0E94660B38F00E946D0B20F038
:1014300039F49F3F19F426F40C94630B0EF4E095F5
:10144000E7FB0C945D0BE92F0E94850B58F3BA174C
:10145000620773078407950720F079F4A6F50C94CA
:10146000A70B0EF4E0950B2EBA2FA02D0B01B9019E
:1014700090010C01CA01A0011124FF27591B99F00A
:10148000593F50F4503E68F11A16F040A22F232F16
:10149000342F4427585FF3CF469537952795A79566
:1014A000F0405395C9F77EF41F16BA0B620B730B0D
:1014B000840BBAF09150A1F0FF0FBB1F661F771F7E
:1014C000881FC2F70EC0BA0F621F731F841F48F433
:1014D000879577956795B795F7959E3F08F0B0CFBC
:1014E0009395880F08F09927EE0F979587950895A3
:1014F0000E948C0A0C94740B0E946D0B58F00E9491
:10150000660B40F029F45F3F29F00C945D0B5111FC
:101510000C94A80B0C94630B0E94850B68F3992321
:10152000B1F3552391F3951B550BBB27AA276217DF
:101530007307840738F09F5F5F4F220F331F441FEC
:10154000AA1FA9F335D00E2E3AF0E0E832D0915020
:101550005040E695001CCAF72BD0FE2F29D0660F0D
:10156000771F881FBB1F261737074807AB07B0E850
:1015700009F0BB0B802DBF01FF2793585F4F3AF056
:101580009E3F510578F00C945D0B0C94A80B5F3FC7
:10159000E4F3983ED4F3869577956795B795F795DC
:1015A0009F5FC9F7880F911D9695879597F90895C4
:1015B000E1E0660F771F881FBB1F62177307840760
:1015C000BA0720F0621B730B840BBA0BEE1F88F76F
:1015D000E09508950E94F10A6894B1110C94A80B4B
:1015E00008950E948D0B88F09F5798F0B92F992786
:1015F000B751B0F0E1F0660F771F881F991F1AF0FE
:10160000BA95C9F714C0B13091F00E94A70BB1E0B0
:1016100008950C94A70B672F782F8827B85F39F0AF
:10162000B93FCCF3869577956795B395D9F73EF496
:1016300090958095709561957F4F8F4F9F4F08953E
:10164000E89409C097FB3EF490958095709561955C
:101650007F4F8F4F9F4F9923A9F0F92F96E9BB2712
:101660009395F695879577956795B795F111F8CF8E
:10167000FAF4BB0F11F460FF1BC06F5F7F4F8F4FF9
:101680009F4F16C0882311F096E911C0772321F0EF
:101690009EE8872F762F05C0662371F096E8862F87
:1016A00070E060E02AF09A95660F771F881FDAF7DE
:1016B000880F9695879597F9089597F99F6780E821
:1016C00070E060E008959FEF80EC089500240A9494
:1016D0001616170618060906089500240A9412160D
:1016E0001306140605060895092E0394000C11F440
:1016F000882352F0BB0F40F4BF2B11F460FF04C0ED
:101700006F5F7F4F8F4F9F4F089557FD9058440F45
:10171000551F59F05F3F71F04795880F97FB991F50
:1017200061F09F3F79F0879508951216130614060D
:10173000551FF2CF4695F1DF08C01616170618069A
:10174000991FF1CF86957105610508940895E89475
:10175000BB2766277727CB0197F908950E94C10B15
:101760000C94740B0E94660B38F00E946D0B20F0F5
:10177000952311F00C945D0B0C94630B11240C94C5
:10178000A80B0E94850B70F3959FC1F3950F50E055
:10179000551F629FF001729FBB27F00DB11D639F23
:1017A000AA27F00DB11DAA1F649F6627B00DA11DC9
:1017B000661F829F2227B00DA11D621F739FB00D6F
:1017C000A11D621F839FA00D611D221F749F3327DF
:1017D000A00D611D231F849F600D211D822F762F78
:1017E0006A2F11249F5750409AF0F1F088234AF055
:1017F000EE0FFF1FBB1F661F771F881F91505040C1
:10180000A9F79E3F510580F00C945D0B0C94A80B3A
:101810005F3FE4F3983ED4F3869577956795B79547
:10182000F795E7959F5FC1F7FE2B880F911D969561
:10183000879597F9089597FB072E16F4009407D023
:1018400077FD09D00E94510C07FC05D03EF490951D
:1018500081959F4F0895709561957F4F0895A1E2FE
:101860001A2EAA1BBB1BFD010DC0AA1FBB1FEE1F1A
:10187000FF1FA217B307E407F50720F0A21BB30B65
:10188000E40BF50B661F771F881F991F1A9469F7E1
:1018900060957095809590959B01AC01BD01CF013D
:1018A0000895AA1BBB1B51E107C0AA1FBB1FA617A7
:1018B000B70710F0A61BB70B881F991F5A95A9F7F9
:1018C00080959095BC01CD010895EE0FFF1F059006
:0A18D000F491E02D0994F894FFCF85
:1018DA0001000096430D00560200001901000000A5
:1018EA0000FF000000000000001D010000210100AF
:1018FA000025010000290100002D01000000000060
:10190A00000080000000000000000000010000004C
:10191A0000000000000002000000000000000000BB
:10192A0001000000000000000000010000000000AB
:10193A000000000001000000000000000001000497
:10194A0000000000000000990319030000544153ED
:10195A004B2025642053503C25703E0D0A005465E7
:10196A007374204661696C65642121212C206C699D
:10197A006E653A313830200D0A000D0A2052656C26
:10198A0065617365205441534B31200D0A0054415F
:10199A00534B320D0A005441534B330D0A00544144
:1019AA00534B340D0A005441534B350D0A00400481
:1019BA00F4010700070185015602EE010100F20158
:1019CA0001001002020210021E022C023A02480210
:1019DA0056026C027B0131010002003B018080014A
:1019EA00640277013B01010000C70101010168029D
:1019FA007901450102010010020202016C027B0119
:101A0A004F010300007E020101016C027B015901B2
:101A1A0004000090020101016C027B0163010500D0
:101A2A00009C020101016C027B016D010603003D6D
:101A3A00070000011A0380009A02800000000000DB
:101A4A00000000004E048905EE032C04C003DA03EB
:021A5A00CC03BB
:00000001FF
