S00F000061726475696E6F2E7372656323
S11300000C945D000C9485000C9485000C94850080
S11300100C9485000C9485000C9485000C94850048
S11300200C9485000C9485000C9485000C947E0F30
S11300300C9485000C9485000C9485000C94850028
S11300400C9441080C9485000C94950A0C94C70AEE
S11300500C9485000C9485000C9485000C94850008
S11300600C9485000C948500000000080002010037
S1130070000304070000000000000000010204085F
S113008010204080010204081020010204081020FE
S1130090040404040404040402020202020203032A
S11300A00303030300000000250028002B000000C8
S11300B00000240027002A00F70A11241FBECFEFF6
S11300C0D8E0DEBFCDBF12E0A0E0B1E0E6EEF9E299
S11300D002C005900D92AC37B107D9F724E0ACE724
S11300E0B2E001C01D92A639B207E1F710E0CDE5F8
S11300F0D0E004C02197FE010E940612CC35D1073E
S1130100C9F70E94A8060C94F1140C947A0F00000D
S11301102F923F924F925F926F927F928F929F9213
S1130120AF92BF92CF92DF92EF92FF920F931F9301
S1130130CF93DF93E42FF52F419050804F925F923D
S1130140E42FF52F4DB65EB6419250820C94A80070
S1130150E62FF72F419050804DBE5EBE5F904F90CA
S1130160E62FF72F41925082DF91CF911F910F918B
S1130170FF90EF90DF90CF90BF90AF909F908F90C3
S11301807F906F905F904F903F902F900C94A80CAD
S1130190E62FF72F419150814DBF5EBF0C94B20CF6
S11301A02F923F924F925F926F927F928F929F9283
S11301B0AF92BF92CF92DF92EF92FF920F931F9371
S11301C0CF93DF93E42FF52F419050804F925F92AD
S11301D0E42FF52F4DB65EB6419250820C94C800C0
S11301E0E82FF92F419150814DBF5EBFE62FF72FC5
S11301F0099400008091C5029091C6028530910552
S1130200F9F480910E0190910F01019771F18091A1
S1130210D8029091D902019741F11092C70210922D
S1130220C8021092C9021092CA021092C602109219
S1130230C50282E090E0909301018093000108954B
S11302408430910521F38330910539F48091D602ED
S11302509091D702019709F708950197029728F41E
S11302608091D4029091D502D6CF08954F925F9297
S11302706F927F928F929F92AF92BF92CF92DF92B2
S1130280EF92FF92CF93DF93CDB7DEB7C454D10979
S11302900FB6F894DEBF0FBECDBF80910E019091D2
S11302A00F01019799F08091D8029091D90201979A
S11302B069F08091D6029091D702019739F080912C
S11302C0D4029091D502019709F079C38091C402B8
S11302D0823024F48F5F8093C4023AC02091C0021C
S11302E03091C1024091C2025091C30260910A014F
S11302F070910B0180910C0190910D010E94A60F49
S11303006B017C012091CC023091CD024091CE0250
S11303105091CF026091BC027091BD028091BE02E7
S11303209091BF020E94A60F9B01AC01C701B601C8
S11303300E94A70F2DEC3CEC4CEC5DE30E941810DE
S11303406093B8027093B9028093BA029093BB028F
S113035080910A0190910B01A0910C01B0910D01C3
S113036089879A87AB87BC878093C0029093C10228
S1130370A093C202B093C3028090CC029090CD02AD
S1130380A090CE02B090CF028092BC029092BD02A7
S1130390A092BE02B092BF0220E030E040E05FE3F2
S11303A0BC01CD010E947711698B7A8B8B8B9C8B5E
S11303B06093B4027093B5028093B6029093B7022F
S11303C0DC01CB018093910490939204A093930455
S11303D0B093940426E636E646E650E469857A85C9
S11303E08B859C850E9418109B01AC010E9477119B
S11303F069837A838B839C8320E030E040E05EE372
S11304000E9477116D8F7E8F8F8F98A360939002D7
S113041070939102809392029093930220E030E0D3
S113042040E451E469817A818B819C810E94181097
S113043069A37AA38BA39CA3609388027093890217
S113044080938A0290938B0220E030E040E85DE3E1
S113045069817A818B819C810E947711698F7A8F5F
S11304608B8F9C8F60938C0270938D0280938E028D
S113047090938F0220E030E040EC50E469817A816F
S11304808B819C810E9418106DA37EA38FA398A7D3
S1130490609384027093850280938602909387020E
S11304A020E030E040EA50E469817A818B819C81CC
S11304B00E9418106D877E878F87988B60938002C7
S11304C070938102809382029093830220E030E053
S11304D040E85EE369817A818B819C810E94771177
S11304E06D8B7E8B8F8B988F60937C0270937D02D3
S11304F080937E0290937F02C0900601D090070102
S1130500E0900801F090090126E636E646E650E45C
S1130510C501B4010E9418102B013C019B01AC01E0
S1130520C701B6010E9418106D837E838F8398875C
S11305306093B0027093B1028093B2029093B302BD
S1130540A30192016D8D7E8D8F8D98A10E9418104C
S11305506DA77EA78FA798AB6093AC027093AD0292
S11305608093AE029093AF02A301920169A17AA194
S11305708BA19CA10E94181069AB7AAB8BAB9CAB8E
S11305806093A4027093A5028093A6029093A7029D
S1130590A3019201698D7A8D8B8D9C8D0E94181018
S11305A025966CAF7DAF8EAF9FAF25976093A80261
S11305B07093A9028093AA029093AB02A3019201C3
S11305C06DA17EA18FA198A50E9418106DAB7EAB82
S11305D08FAB98AF60939C0270939D0280939E02B0
S11305E090939F02A30192016D857E858F859889E2
S11305F00E94181069AF7AAF8BAF9CAF60939802DA
S11306007093990280939A0290939B02A3019201A2
S11306106D897E898F89988D0E94181069A77AA7A1
S11306208BA79CA760939402709395028093960283
S113063090939702A301920169897A898B899C8995
S11306400E94181021966CAF7DAF8EAF9FAF21979B
S11306506093A0027093A1028093A2029093A302DC
S11306601092C7021092C8021092C9021092CA02D4
S113067020E030E0A901C501B4010E9472111816EE
S11306807CF425962CAD3DAD4EAD5FAD25976D81C7
S11306907E818F8198850E94131018160CF113C067
S11306A020E030E0A901C501B4010E94131087FFC6
S11306B0DEC0298D3A8D4B8D5C8DC701B6010E9439
S11306C0131018165CF180E090E0A0E0B1E4809390
S11306D0C7029093C802A093C902B093CA023EC055
S11306E020E030E0A901C501B4010E94131087FD88
S11306F0B8C229A93AA94BA95CA96D817E818F81D1
S113070098850E94131018169CF420E030E0A9018B
S1130710C501B4010E94131087FF2DC029A13AA17D
S11307204BA15CA1C701B6010E9413101816CCF0AE
S1130730A7019601C701B6010E94A70F9B01AC0156
S113074069817A818B819C810E9418106093C70211
S11307507093C8028093C9029093CA0281E090E02A
S11307600FC120E030E0A901C501B4010E9472115B
S113077018160CF04CC12DA53EA54FA558A96D81A6
S11307807E818F8198850E94131018160CF049C140
S113079020E030E0A901C501B4010E94131087FDD7
S11307A036C121962CAD3DAD4EAD5FAD21976D8127
S11307B07E818F8198850E94131018160CF05EC1FB
S11307C020E030E0A901C501B4010E94131087FDA7
S11307D04BC12DA93EA94FA958AD6D817E818F8152
S11307E098850E94131018160CF075C120E030E0B3
S11307F0A901C501B4010E94131087FD62C129AD8E
S11308003AAD4BAD5CAD6D817E818F8198850E9440
S1130810131018160CF07AC120E030E0A901C501CC
S1130820B4010E94131087FD67C129A53AA54BA501
S11308305CA56D817E818F8198850E9413101816A6
S11308400CF0AFC120E030E0A901C501B4010E9461
S1130850131087FD92C129A53AA54BA55CA56D810E
S11308607E818F8198850E9472111816A4F020E071
S113087030E0A901C501B4010E94131087FF88C0AC
S11308802D893E894F89588DC701B6010E94721186
S113089018160CF07DC0C0900201D0900301E090C6
S11308A00401F090050129853A854B855C85C701D3
S11308B0B6010E94721129853A854B855C8518160C
S11308C084F5C701B6010E94A60F6B017C0120E0EC
S11308D030E040E450E40E94721118166CF480E099
S11308E090E0A0E4B0E48093C7029093C802A09380
S11308F0C902B093CA0208C0C092C702D092C8020B
S1130900E092C902F092CA0285E090E09093C60298
S11309108093C50281E090E09093010180930001EF
S113092037C0C701B6010E94131087FF31C0A70169
S1130930960169857A858B859C850E94A60F6B013B
S11309407C0120E030E040E450EC0E947211181663
S11309506CF480E090E0A0E4B0EC8093C702909344
S1130960C802A093C902B093CA0208C0C092C702C9
S1130970D092C802E092C902F092CA0285E090E0E7
S11309809093C6028093C502109201011092000157
S1130990CC5BDF4F0FB6F894DEBF0FBECDBFDF9147
S11309A0CF91FF90EF90DF90CF90BF90AF909F904A
S11309B08F907F906F905F904F900C94FA001092FC
S11309C0C7021092C8021092C9021092CA02109271
S11309D0C6021092C50282E090E0909301018093D8
S11309E00001CC5BDF4F0FB6F894DEBF0FBECDBF66
S11309F0DF91CF91FF90EF90DF90CF90BF90AF90B9
S1130A009F908F907F906F905F904F9008952D8D61
S1130A103E8D4F8D58A1C701B6010E9413101816C0
S1130A20CCF0A7019601C701B6010E94A70F9B0154
S1130A30AC0169817A818B819C810E94181060933A
S1130A40C7027093C8028093C9029093CA0282E0DD
S1130A5090E096CF20E030E0A901C501B4010E94E6
S1130A60721118160CF49DCE29893A894B895C8938
S1130A70C701B6010E9413101816CCF0A701960105
S1130A80C701B6010E94A70F9B01AC0169817A815D
S1130A908B819C810E9418106093C7027093C802D6
S1130AA08093C9029093CA0283E090E069CF20E06A
S1130AB030E0A901C501B4010E94721118160CF4AA
S1130AC088CE2DA13EA14FA158A5C701B6010E9411
S1130AD0131018163CF01092C6021092C50282E060
S1130AE090E01ACF20E030E0A901C501B4010E94D2
S1130AF0721118160CF483CE2D853E854F855889C6
S1130B00C701B6010E94131018166CF1A7019601D3
S1130B10C701B6010E94A70F9B01AC0169817A81CC
S1130B208B819C810E9418106093C7027093C80245
S1130B308093C9029093CA0220E030E040E450E47C
S1130B400E947211181664F480E090E0A0E4B0E40E
S1130B508093C7029093C802A093C902B093CA02BB
S1130B6084E090E00DCF20E030E0A901C501B4019C
S1130B700E94721118160CF458CE2D893E894F89A3
S1130B80588DC701B6010E94131018160CF45EC0EC
S1130B9020E030E0A901C501B4010E9472111816C9
S1130BA0CCF4A3019201C301B2010E9477114B015D
S1130BB05C012D853E854F855889C701B6010E9489
S1130BC0A60F9B01AC010E94A70F9B01AC01C501BC
S1130BD0B401A8CFA3019201C301B2010E9477110D
S1130BE04B015C012D853E854F855889C701B601AF
S1130BF00E94A60F9B01AC010E94A70F9B01AC01B0
S1130C00C501B4010E9418106B017C0120E030E0A2
S1130C1040E450E40E94721118164CF0C092C702CE
S1130C20D092C802E092C902F092CA020CC080E0DD
S1130C3090E0A0E4B0E48093C7029093C802A0932C
S1130C40C902B093CA0284E090E060CE20E030E0B4
S1130C50A901C501B4010E94721118160CF4FBCD50
S1130C600FCE298D3A8D4B8D5C8DC701B6010E9444
S1130C70131018160CF43DCD26CDCF92DF92EF92CF
S1130C80FF926B017C018091CB02811104C081E051
S1130C908093CB0220C0A70196016091D00270918D
S1130CA0D1028091D2029091D3020E94A60F2DEC22
S1130CB03CEC4CEC5DE30E94181026E636E646E672
S1130CC050E40E9477116093CC027093CD0280931C
S1130CD0CE029093CF02C092D002D092D102E09281
S1130CE0D202F092D302FF90EF90DF90CF9008955C
S1130CF060E472E48FE090E00C94660B8091E00273
S1130D00811115C061E08091E9029091EA02892B7A
S1130D1009F060E0862F90E09093EA028093E90264
S1130D20809112010E942B0981E00C94740C1092A2
S1130D30E002089561E0809112010E94EF0826E02C
S1130D4040E052EC61E070E084EF93E00C94300AF0
S1130D500E948B080E949A0680E00E94CD0B80E0DE
S1130D6090E00895CF93DF938091E8028F5F8093A2
S1130D70E802609106017091070180910801909149
S1130D8009010E943D060E943601C0911001D091D4
S1130D901101BE0180E090E00E94C0102DEC3CECFB
S1130DA04CEC5DE30E94771126E636E646E650E415
S1130DB00E9418109B01AC0160910601709107011B
S1130DC080910801909109010E94A60F6093060189
S1130DD07093070180930801909309012196D093A1
S1130DE01101C093100182E00E94740C8091E6020C
S1130DF08F5F8093E602DF91CF910895CF92DF92C7
S1130E00FF920F931F93CF93DF93CDB7DEB7A897CD
S1130E100FB6F894DEBF0FBECDBF8091E7028F5F9F
S1130E208093E70220E030E048EC52E46091C7028E
S1130E307091C8028091C9029091CA020E947711F0
S1130E400E948A106093DC027093DD027F936F939B
S1130E500AE811E01F930F931F928AE0F82EFF9285
S1130E606E018FE1C80ED11CDF92CF920E940C124A
S1130E70B60184EF93E00E94640B6FE871E084EFA5
S1130E8093E00E94640B8091C5029091C602809306
S1130E90DA029093DB029F938F931F930F931F9219
S1130EA0FF926E0195E1C90ED11CDF92CF920E9490
S1130EB00C12B60184EF93E00E94640B6FE871E0BA
S1130EC084EF93E00E94640B809101018F938091E1
S1130ED000018F931F930F931F92FF926E018BE07B
S1130EE0C80ED11CDF92CF920E940C12B60184EF7F
S1130EF093E00E94640B6FE871E084EF93E00E943A
S1130F00640B20E030E048EC52E4609106017091FB
S1130F10070180910801909109010E9477110E94B4
S1130F208A107F936F931F930F931F92FF928E01EA
S1130F300F5F1F4F1F930F930E940C120FB6F8946C
S1130F40DEBF0FBECDBFB80184EF93E00E94640BF7
S1130F506DE871E084EF93E00E94640B8091E502F8
S1130F608F5F8093E502A8960FB6F894DEBF0FBE9C
S1130F70CDBFDF91CF911F910F91FF90DF90CF9064
S1130F800895F894FC0101900020E9F73197AF012E
S1130F90481B590BBC0184EF93E00E94240B88E9A1
S1130FA099E0892B11F00E949809789408950F9381
S1130FB01F93CF93DF9300D0CDB7DEB78DB79EB725
S1130FC09A8389838091DE029091DF02892B39F420
S1130FD089819A819093DF028093DE021BC0209165
S1130FE0DE023091DF0289819A812817390791F056
S1130FF061E0809112010E942B09F89483EA91E048
S11310000E94C10708E919E001151105E9F30E94DE
S11310109809FACFF89488E999E0892B11F00E9495
S1131020980978940F900F90DF91CF911F910F91B1
S113103008958FEB91E00E94C1078091E4028F5FD5
S11310408093E40284E00E94740C8091E3028F5F39
S11310508093E302089587EC91E00E94C107809198
S1131060E2028F5F8093E20285E00C94740C8FECB3
S113107091E00E94C1078091E1028F5F8093E102B9
S113108008951F920F920FB60F9211242F933F933E
S11310908F939F93AF93BF938091EC039091ED0353
S11310A0A091EE03B091EF033091EB0323E0230F03
S11310B02D3720F40196A11DB11D05C026E8230F8C
S11310C00296A11DB11D2093EB038093EC03909332
S11310D0ED03A093EE03B093EF038091F00390919E
S11310E0F103A091F203B091F3030196A11DB11D88
S11310F08093F0039093F103A093F203B093F3036E
S1131100BF91AF919F918F913F912F910F900FBEFF
S11311100F901F901895789484B5826084BD84B52F
S1131120816084BD85B5826085BD85B5816085BDDE
S1131130EEE6F0E0808181608083E1E8F0E01082F7
S1131140808182608083808181608083E0E8F0E038
S1131150808181608083E1EBF0E080818460808322
S1131160E0EBF0E0808181608083EAE7F0E0808159
S113117084608083808182608083808181608083B9
S11311808081806880831092C1000895833081F04B
S113119028F4813099F08230A1F008958730A9F0C5
S11311A08830B9F08430D1F4809180008F7D03C001
S11311B0809180008F7780938000089584B58F7725
S11311C002C084B58F7D84BD08958091B0008F776F
S11311D003C08091B0008F7D8093B0000895CF93B9
S11311E0DF9390E0FC01E458FF4F2491FC01E057A9
S11311F0FF4F8491882361F190E0880F991FFC01CF
S1131200E255FF4FC591D491FC01EC55FF4FA591D8
S1131210B491611109C09FB7F89488812095822305
S11312208883EC912E230BC0623061F49FB7F8944D
S11312303881822F809583238883EC912E2B2C93E5
S11312409FBF06C08FB7F894E8812E2B28838FBFE9
S1131250DF91CF9108951F93CF93DF93282F30E030
S1131260F901E859FF4F8491F901E458FF4FD491F3
S1131270F901E057FF4FC491CC23C9F0162F811117
S11312800E94C608EC2FF0E0EE0FFF1FEC55FF4F55
S1131290A591B4918FB7F894111105C09C91ED2FCD
S11312A0E095E92302C0EC91ED2BEC938FBFDF9125
S11312B0CF911F910895FC01918D228D892F90E08B
S11312C0805C9F4F821B91098F7399270895FC01BD
S11312D0918D828D981731F0828DE80FF11D858DE7
S11312E090E008958FEF9FEF0895FC01918D828D1A
S11312F0981761F0828DDF01A80FB11D5D968C9166
S1131300928D9F5F9F73928F90E008958FEF9FEF70
S11313100895FC01538D448D252F30E0842F90E0F7
S1131320821B930B541710F0CF96089501970895DC
S11313308DEE9AE0892B49F080E090E0892B29F02A
S11313400E94ED0A81110C9400000895FC01848D23
S1131350DF01A80FB11DA35ABF4F2C91848D90E0DB
S113136001968F739927848FA689B7892C93A089B6
S1131370B1898C9180648C93938D848D981306C06D
S11313800288F389E02D80818F7D80830895CF9337
S1131390DF93EC01888D8823C9F0EA89FB89808179
S11313A085FD05C0A889B9898C9186FD0FC00FB64B
S11313B007FCF5CF808185FFF2CFA889B9898C918C
S11313C085FFEDCFCE010E94A609E7CFDF91CF9133
S11313D00895EF92FF920F931F93CF93DF93EC0145
S11313E081E0888F9B8D8C8D981305C0E889F989DD
S11313F0808185FD24C0F62E0B8D10E00F5F1F4FFA
S11314000F731127E02E8C8DE8120CC00FB607FC69
S1131410FACFE889F989808185FFF5CFCE010E9452
S1131420A609F1CF8B8DFE01E80FF11DE35AFF4FA2
S1131430F0820B8FEA89FB898081806207C0EE8984
S1131440FF896083E889F98980818064808381E0F1
S113145090E0DF91CF911F910F91FF90EF9008954D
S1131460CF92DF92EF92FF921F93CF93DF93EC0121
S11314706A017B01122FE889F98982E08083411592
S1131480514E61057105B1F060E079E08DE390E0C3
S1131490A70196010E94E411DA01C9010197A1098B
S11314A0B109B695A79597958795AC01411580E14B
S11314B05807A8F0E889F989108260E874E88EE199
S11314C090E0A70196010E94E411BA01A9014150DC
S11314D05109610971097695679557954795EC858A
S11314E0FD855083EE85FF854083188EEC89FD8948
S11314F01083EA89FB89808180618083EA89FB8982
S1131500808188608083EA89FB8980818068808308
S1131510EA89FB8980818F7D8083DF91CF911F9140
S1131520FF90EF90DF90CF9008951F920F920FB627
S11315300F9211242F938F939F93EF93FF93E09136
S11315400404F09105048081E0910A04F0910B04F5
S113155082FD12C0908180910D048F5F8F73209162
S11315600E04821751F0E0910D04F0E0EC50FC4FB2
S1131570958F80930D0401C08081FF91EF919F911D
S11315808F912F910F900FBE0F901F9018951F925F
S11315900F920FB60F9211242F933F934F935F93A3
S11315A06F937F938F939F93AF93BF93EF93FF9327
S11315B084EF93E00E94A609FF91EF91BF91AF9150
S11315C09F918F917F916F915F914F913F912F9157
S11315D00F900FBE0F901F90189584EF93E00E9418
S11315E05B0921E0892B09F420E0822F0895E4EFC0
S11315F0F3E01382128288EE93E0A0E0B0E08483EB
S11316009583A683B7838DE692E09183808385ECEE
S113161090E09587848784EC90E09787868780ECB8
S113162090E0918B808B81EC90E0938B828B82ECA9
S113163090E0958B848B86EC90E0978B868B118E53
S1131640128E138E148E0895CF92DF92EF92FF9232
S11316500F931F93CF93DF936C017A018B01C0E04A
S1131660D0E0CE15DF0589F0D8016D918D01D6014A
S1131670ED91FC910190F081E02DC6010995892B33
S113168011F47E0102C02196ECCFC701DF91CF9106
S11316901F910F91FF90EF90DF90CF900895611507
S11316A0710579F0FB0101900020E9F73197AF0152
S11316B0461B570BDC01ED91FC910280F381E02D78
S11316C0099480E090E008950C944F0B10928100EF
S11316D01092800010928200109285001092840073
S11316E0611520E172078105910548F4E4E0660F75
S11316F0771FEA95E1F76150710981E042C06115F5
S113170020E872078105910530F4660F771F615058
S1131710710982E036C06C3F2FEF720723E0820725
S1131720910570F4DC01CB0142E0B695A79597953D
S113173087954A95D1F7BC016150710983E021C0B6
S11317406115710520E18207910570F4DC01CB017C
S113175034E0B695A795979587953A95D1F7BC014E
S11317606150710984E00DC0DC01CB0126E0B6951F
S1131770A795979587952A95D1F7BC016150710972
S113178085E092E096BB90936F007093890060931C
S1131790880088608093810008954F925F926F92D1
S11317A07F928F929F92AF92BF92CF92DF92EF92ED
S11317B0FF920F931F93CF93DF9300D0CDB7DEB783
S11317C00091DD011091DE019FB7F894D8011896BD
S11317D02D913C911997232B09F06DC0F82E8CE7BD
S11317E09FE09A838983C090E101D090E20181E077
S11317F090E019969C938E9318971A96FC920E94E7
S113180078064090E3015090E4014801B2E08B0E69
S1131810911CF20184E0F89EE00DF11D1124A280D8
S1131820B380E12CF12C2F0166246394712CEA140B
S1131830FB0431F1D201ED91FC91C701880F991F8E
S1131840E80FF91F40815181DA011496ED91FC9162
S1131850159780818F5F808373826282F80164812F
S11318607581DB018D919C911197958384831D92E1
S11318701C92C4010E94950DBFEFEB1AFB0AD7CF4F
S1131880F80180859185019721F482E090E09187A9
S11318908087D80118968D919C911997029779F4B5
S11318A0F60162817381AB01C6010E94D000C601BA
S11318B00E94D80D04C09FBF81E090E002C080E088
S11318C090E00F900F90DF91CF911F910F91FF90B7
S11318D0EF90DF90CF90BF90AF909F908F907F90CC
S11318E06F905F904F900895FF920F931F93CF9343
S11318F0DF9390E02091DB013091DC0182179307A4
S1131900F0F4E091D901F091DA01880F991FE80F02
S1131910F91F00811181F80187819085029778F47D
S1131920FFB6F894C8010E94C60DEC01892B29F476
S1131930B80187ED91E00E94070EFFBE02C0C3E02C
S1131940D0E0CE01DF91CF911F910F91FF900895C8
S1131950DC011496ED91FC91159784E090E093835B
S113196082830895EC01EC81FD81818124E030E0E3
S1131970338322838F3F09F07894E985FA850995AA
S1131980E091DD01F091DE01108A8785882319F04A
S1131990178685858FBF8189882311F0118A7894F1
S11319A08FB7F89464E67FE08A819B810E94F000FF
S11319B00F931F93CF93DF93CFB7F89487ED91E004
S11319C00E94CD0ECFBF0091DD011091DE01C091C8
S11319D0DF01D091E001F80180859185029729F417
S11319E02097C9F3FE010995F6CF8091E10190910A
S11319F0E201DF91CF911F910F910C94490F0F9346
S1131A001F93CF93DF93EC01A881B981EB01E881A7
S1131A10F9811696CD91DC9117972097B1F08A81C0
S1131A209B813097E1F1EC010C811D81228133818E
S1131A30E9014C815D81E8013981EA01298132178C
S1131A4070F522E030E0E8010BC0309741F1EC0181
S1131A508C819D81EC014C815D8122E030E0EA01C2
S1131A603B832A8320813181EB0139832883C2811E
S1131A70D3814C815D8116962D913C9117973183CA
S1131A8020831796FC93EE931697CD93DC932C85C5
S1131A90FA013181321728F4FA01218302C080E06F
S1131AA090E0DF91CF911F910F9108950F931F93B1
S1131AB0CF93DF93DB011296ED91FC911397A481F0
S1131AC0B5814115510511F0238502C011962C9161
S1131AD0EC01E881F981A0E0B0E0309791F0C28197
S1131AE0D3810C811D814115510511F03B8502C044
S1131AF0E8013981321728F0DF010190F081E02DEF
S1131B00ECCF109729F06D937C9380E090E005C0B2
S1131B10DC016D937C9381E090E0EB01F983E88331
S1131B20DF91CF911F910F910895FB01538342835D
S1131B3041E050E00C94560DEF92FF920F931F93E7
S1131B40CF93DF938C01FC01C081D181EE80FF80B3
S1131B50F701808191819F838E83C8010E94FF0CCD
S1131B60EE81FF81892B51F4309719F082819381A2
S1131B7003C0F8018481958199838883C701DF912B
S1131B80CF911F910F91FF90EF900895DC0114966F
S1131B90ED91FC91159790811D968C91981728F4DE
S1131BA09F5F908380E090E0089584E090E0089542
S1131BB0DC011496ED91FC9115971B968C91818311
S1131BC0808181508083811103C013821282089521
S1131BD081E090E09383828308952091D9019091CC
S1131BE0DA01E22FF92FE80FF11DE80FF11D6081F2
S1131BF07181DB011496ED91FC91159780818F5FC3
S1131C00808340E050E087ED91E00C94E80ECF93A0
S1131C10DF93DB011496CD91DC911597E091DD0102
S1131C20F091DE0180819181DC0114962D913C912B
S1131C301597D90111965C914981A481B5815417F6
S1131C4018F54D915C9111975583448342E050E01F
S1131C50E9015B834A8313967C936E9312972681E2
S1131C60378111963C932E93B783A6837183608347
S1131C70DB011496ED91FC911597178216820E9450
S1131C80200F81E090E01AC08A819B81892B31F476
S1131C9081E090E09B838A831F821E828D919C91B8
S1131CA011979583848311961C921E92AB01BD01FA
S1131CB0CF0102960E94950D80E090E0DF91CF91D4
S1131CC00895AF92BF92CF92DF92EF92FF920F935B
S1131CD01F93CF93DF93C091DD01D091DE01FE010C
S1131CE0E190F1906F01F70104811581FB01F1820C
S1131CF0E082F801828193810497D9F4B6018DEDD5
S1131D0091E00E949C0D5C01C880D980EC14FD0414
S1131D1021F0C7010E94D80D04C0F80190819150B0
S1131D2090838C819D81F50191838083BD82AC82F7
S1131D3028C06E817F81FB01808191819F838E8386
S1131D40F7018385F801818381E090E093838283A6
S1131D508081813011F417821682A701C6010E9486
S1131D60950DB6018DED91E00E94FF0C892B39F49D
S1131D70EE81FF81C280D380D982C88202C0C8802C
S1131D80D980C601DF91CF911F910F91FF90EF9001
S1131D90DF90CF90BF90AF900895CF93DF93C09121
S1131DA0DD01D091DE01BE016E5F7F4F8DED91E0CC
S1131DB00E94FF0C009739F0688179810E94200FFE
S1131DC081E090E002C080E090E0DF91CF9108953F
S1131DD0CF93DF93E091DD01F091DE018081918169
S1131DE026813781EC01AC81BD811296CD91DC91C5
S1131DF01397249731F4C2E0D0E01396DC93CE938A
S1131E001297718360834115510569F4A481B581EA
S1131E104D915C9111975583448311961C921E92A7
S1131E20B783A68302C0578346830680F781E02DDB
S1131E307383628331832083DF91CF910C94200FCD
S1131E40FB01A481B58112962D913C911397DC017D
S1131E5012964D915C91139762817381CF01223068
S1131E60310511F40C9488000C94D000CB01DB01F3
S1131E701496ED91FC9115972281338112966D9100
S1131E807C9113972230310511F40C94A8000C9422
S1131E90C800DC0112966D917C911397ED91FC9131
S1131EA040815181DB01ED91FC9122893389211517
S1131EB0310529F4DB01ED93FC930C94A80024175D
S1131EC03507C1F3F901F1CFCF93DF9300D0CDB73C
S1131ED0DEB7BE016F5F7F4F87ED91E00E94610E18
S1131EE0BC0189819A810E94360F0F900F90DF9177
S1131EF0CF910895F894FFCFE4EF08958F939F93C3
S1131F0080E00E94860F9F918F9118951F920F92E7
S1131F100FB60F9211242F933F934F935F936F93B8
S1131F207F93AF93BF93EF93FF930E94ED0DFF91C7
S1131F30EF91BF91AF917F916F915F914F913F91DD
S1131F402F910F900FBE0F901F9008955058BB27EC
S1131F50AA270E94BE0F0C9438110E942A1138F04F
S1131F600E94311120F039F49F3F19F426F40C94A7
S1131F7027110EF4E095E7FB0C942111E92F0E9440
S1131F80491158F3BA17620773078407950720F0BD
S1131F9079F4A6F50C946B110EF4E0950B2EBA2F80
S1131FA0A02D0B01B90190010C01CA01A00111245B
S1131FB0FF27591B99F0593F50F4503E68F11A1607
S1131FC0F040A22F232F342F4427585FF3CF469598
S1131FD037952795A795F0405395C9F77EF41F16BA
S1131FE0BA0B620B730B840BBAF09150A1F0FF0F84
S1131FF0BB1F661F771F881FC2F70EC0BA0F621F70
S1132000731F841F48F4879577956795B795F7955F
S11320109E3F08F0B0CF9395880F08F09927EE0FF4
S11320209795879508950E94FD1008F481E008951E
S11320300E942C100C9438110E94311158F00E9407
S11320402A1140F029F45F3F29F00C942111511119
S11320500C946C110C9427110E94491168F3992374
S1132060B1F3552391F3951B550BBB27AA27621790
S11320707307840738F09F5F5F4F220F331F441F9D
S1132080AA1FA9F335D00E2E3AF0E0E832D09150D1
S11320905040E695001CCAF72BD0FE2F29D0660FBE
S11320A0771F881FBB1F261737074807AB07B0E801
S11320B009F0BB0B802DBF01FF2793585F4F3AF007
S11320C09E3F510578F00C9421110C946C115F3FE4
S11320D0E4F3983ED4F3869577956795B795F7958D
S11320E09F5FC9F7880F911D9695879597F9089575
S11320F0E1E0660F771F881FBB1F62177307840711
S1132100BA0720F0621B730B840BBA0BEE1F88F71F
S1132110E09508950E9491106894B1110C946C118B
S113212008950E94511188F09F5798F0B92F99276C
S1132130B751B0F0E1F0660F771F881F991F1AF0AE
S1132140BA95C9F714C0B13091F00E946B11B1E097
S113215008950C946B11672F782F8827B85F39F096
S1132160B93FCCF3869577956795B395D9F73EF447
S113217090958095709561957F4F8F4F9F4F0895EF
S1132180E89409C097FB3EF490958095709561950D
S11321907F4F8F4F9F4F9923A9F0F92F96E9BB27C3
S11321A09395F695879577956795B795F111F8CF3F
S11321B0FAF4BB0F11F460FF1BC06F5F7F4F8F4FAA
S11321C09F4F16C0882311F096E911C0772321F0A0
S11321D09EE8872F762F05C0662371F096E8862F38
S11321E070E060E02AF09A95660F771F881FDAF78F
S11321F0880F9695879597F90895990F0008550FBC
S1132200AA0BE0E8FEEF16161706E807F907C0F078
S113221012161306E407F50798F0621B730B840B80
S1132220950B39F40A2661F0232B242B252B21F45A
S113223008950A2609F4A140A6958FEF811D811DFA
S1132240089597F99F6780E870E060E008959FEF34
S113225080EC089500240A94161617061806090639
S1132260089500240A941216130614060506089508
S1132270092E0394000C11F4882352F0BB0F40F490
S1132280BF2B11F460FF04C06F5F7F4F8F4F9F4FD0
S1132290089557FD9058440F551F59F05F3F71F052
S11322A04795880F97FB991F61F09F3F79F08795B9
S11322B00895121613061406551FF2CF4695F1DF42
S11322C008C0161617061806991FF1CF86957105D2
S11322D0610508940895E894BB2766277727CB0106
S11322E097F908950E94FD1008F48FEF08950E9455
S11322F08A110C9438110E942A1138F00E9431116D
S113230020F0952311F00C9421110C942711112421
S11323100C946C110E94491170F3959FC1F3950FB1
S113232050E0551F629FF001729FBB27F00DB11D55
S1132330639FAA27F00DB11DAA1F649F6627B00DE5
S1132340A11D661F829F2227B00DA11D621F739FCE
S1132350B00DA11D621F839FA00D611D221F749FDC
S11323603327A00D611D231F849F600D211D822F23
S1132370762F6A2F11249F5750409AF0F1F088234A
S11323804AF0EE0FFF1FBB1F661F771F881F915077
S11323905040A9F79E3F510580F00C9421110C94F4
S11323A06C115F3FE4F3983ED4F386957795679577
S11323B0B795F795E7959F5FC1F7FE2B880F911DA1
S11323C09695879597F90895A1E21A2EAA1BBB1B2F
S11323D0FD010DC0AA1FBB1FEE1FFF1FA217B307ED
S11323E0E407F50720F0A21BB30BE40BF50B661F03
S11323F0771F881F991F1A9469F7609570958095C7
S113240090959B01AC01BD01CF010895EE0FFF1F14
S11324100590F491E02D0994AEE0B0E0E2E1F2E140
S11324200C94C8140D891E898F89988D26E02C83FD
S11324301A83098397FF02C080E090E801979E8386
S11324408D83AE01455E5F4F698D7A8DCE01019615
S11324500E943C124D815E8157FD0AC02F81388550
S1132460421753070CF49A01F801E20FF31F10828C
S11324702E96E4E00C94E414ACE0B0E0E2E4F2E183
S11324800C94BA147C016B018A01FC011782168238
S1132490838181FFBDC1CE0101964C01F701938177
S11324A0F60193FD859193FF81916F01882309F4CF
S11324B0ABC1853239F493FD859193FF81916F010E
S11324C0853229F4B70190E00E942414E7CF512CFF
S11324D0312C20E02032A0F48B3269F030F48032C9
S11324E059F0833269F420612CC08D3239F0803385
S11324F039F4216026C02260246023C0286021C0F2
S113250027FD27C030ED380F3A3078F426FF06C097
S1132510FAE05F9E300D1124532E13C08AE0389EDA
S1132520300D1124332E20620CC08E3221F426FD8E
S11325306BC1206406C08C3611F4206802C0883652
S113254041F4F60193FD859193FF81916F0181110F
S1132550C1CF982F9F7D9554933028F40C5F1F4F63
S1132560FFE3F9830DC0833631F0833771F083358F
S113257009F05BC022C0F801808189830E5F1F4F80
S113258044244394512C540115C03801F2E06F0ED9
S1132590711CF801A080B18026FF03C0652D70E096
S11325A002C06FEF7FEFC5012C870E9419142C0124
S11325B083012C852F77222E17C03801F2E06F0E8D
S11325C0711CF801A080B18026FF03C0652D70E066
S11325D002C06FEF7FEFC5012C870E940E142C01FF
S11325E02C852068222E830123FC1BC0832D90E0C0
S11325F048165906B0F4B70180E290E00E94241412
S11326003A94F4CFF50127FC859127FE81915F016F
S1132610B70190E00E94241431103A94F1E04F1A6B
S113262051084114510471F7E5C0843611F089361C
S113263039F5F80127FF07C0608171818281938198
S11326400C5F1F4F08C060817181072E000C880B3E
S1132650990B0E5F1F4F2F76722E97FF09C090952E
S11326608095709561957F4F8F4F9F4F2068722E94
S11326702AE030E0A4010E945C14A82EA81844C0EB
S1132680853729F42F7EB22E2AE030E025C0F22FC0
S1132690F97FBF2E8F36C1F018F4883579F0B4C0B5
S11326A0803719F0883721F0AFC02F2F2061B22E68
S11326B0B4FE0DC08B2D8460B82E09C024FF0AC05F
S11326C09F2F9660B92E06C028E030E005C020E1B7
S11326D030E002C020E132E0F801B7FE07C06081BB
S11326E07181828193810C5F1F4F06C0608171816B
S11326F080E090E00E5F1F4FA4010E945C14A82E9E
S1132700A818FB2DFF777F2E76FE0BC0372D3E7F5A
S1132710A51450F474FE0AC072FC08C0372D3E7E26
S113272005C0BA2C372D03C0BA2C01C0B52C34FF18
S11327300DC0FE01EA0DF11D8081803311F4397E54
S113274009C032FF06C0B394B39404C0832F8678C3
S113275009F0B39433FD13C030FF06C05A2CB314F0
S113276018F4530C5B18B32CB31468F4B70180E26B
S113277090E03C870E942414B3943C85F5CFB314B5
S113278010F43B1801C0312C34FF12C0B70180E3B0
S113279090E03C870E9424143C8532FF17C031FD31
S11327A003C088E790E002C088E590E0B7010CC060
S11327B0832F867859F031FF02C08BE201C080E29A
S11327C037FD8DE2B70190E00E942414A51438F47B
S11327D0B70180E390E00E9424145A94F7CFAA949E
S11327E0F401EA0DF11D8081B70190E00E942414E8
S11327F0A110F5CF332009F451CEB70180E290E067
S11328000E9424143A94F6CFF7018681978102C07E
S11328108FEF9FEF2C96E2E10C94D614FC01059007
S1132820615070400110D8F7809590958E0F9F1FCE
S11328300895FC016150704001900110D8F7809513
S113284090958E0F9F1F08950F931F93CF93DF933F
S1132850FB01238121FD03C08FEF9FEF28C022FFDE
S113286016C046815781248135814217530744F4A9
S1132870A081B1819D012F5F3F4F318320838C93D1
S1132880268137812F5F3F4F3783268310C0EB01AA
S1132890092F182F0084F185E02D0995892BE1F685
S11328A08E819F8101969F838E83812F902FDF914C
S11328B0CF911F910F910895FA01AA27283051F161
S11328C0203181F1E8946F936E7F6E5F7F4F8F4F5D
S11328D09F4FAF4FB1E03ED0B4E03CD0670F781FBC
S11328E0891F9A1FA11D680F791F8A1F911DA11DA1
S11328F06A0F711D811D911DA11D20D009F46894DA
S11329003F912AE0269F11243019305D3193DEF681
S1132910CF010895462F4770405D4193B3E00FD037
S1132920C9F7F6CF462F4F70405D4A3318F0495D22
S113293031FD4052419302D0A9F7EACFB4E0A69505
S11329409795879577956795BA95C9F70097610527
S1132950710508959B01AC010A2E0694579547957D
S113296037952795BA95C9F7620F731F841F951F72
S1132970A01D08952F923F924F925F926F927F9283
S11329808F929F92AF92BF92CF92DF92EF92FF927B
S11329900F931F93CF93DF93CDB7DEB7CA1BDB0B27
S11329A00FB6F894DEBF0FBECDBF09942A883988CC
S11329B048885F846E847D848C849B84AA84B984D3
S11329C0C884DF80EE80FD800C811B81AA81B981DF
S11329D0CE0FD11D0FB6F894DEBF0FBECDBFED01F3
S10929E00895F894FFCFF6
S11329E6020000008C4200004842000048420100F8
S11329F601000D004F020000260100000000FF0048
S1132A060000000000002A0100002E01000032012F
S1132A160000360100003A010000000000000080BA
S1132A26000000000000000000010000000000009B
S1132A360000000200000000000000000001000089
S1132A46000000000000000100000000000000007B
S1132A560001000000000000000001000400000066
S1132A6600000000EA036A0300002564000D0A0D55
S1132A760A005441534B2025642053503C25703E94
S1132A860D0A0054657374204661696C65642121DE
S1132A96212C206C696E653A313830200D0A0054B9
S1132AA641534B330D0A005441534B340D0A005421
S1132AB641534B350D0A009504ED0107001401D767
S1132AC6074F02E7010100EB0101000902FB0109BE
S1132AD60217022502330241024F02650288013EB3
S1132AE6010002007E068080015D02840148010126
S1132AF60000B206010101610286015201020100D1
S1132B06FE06020201650288015C01030000190841
S1132B160101016502880166010400002B08010118
S1132B26016502880170010500003708010101658D
S1132B360288017A01060300D80C0000016B0380A9
S1132B4600EB0280000000000000000000E90924F8
S10F2B560B8909C7095B097509670900B0
S9030000FC
