:100000000C945D000C9485000C9485000C94850084
:100010000C9485000C9485000C9485000C9485004C
:100020000C9485000C9485000C9485000C94490A6E
:100030000C9485000C9485000C9485000C9485002C
:100040000C9457020C9485000C94AB040C94DD04C2
:100050000C9485000C9485000C9485000C9485000C
:100060000C9485000C94850000000008000201003B
:100070000003040700000000000000000102040863
:100080001020408001020408102001020408102002
:10009000040404040404040402020202020203032E
:1000A0000303030300000000250028002B000000CC
:1000B0000000240027002A000D0511241FBECFEFE9
:1000C000D8E0DEBFCDBF12E0A0E0B1E0E6E3F5E1AD
:1000D00002C005900D92AE3CB107D9F724E0AEEC1A
:1000E000B2E001C01D92A938B207E1F710E0CDE5FA
:1000F000D0E004C02197FE010E94930ACC35D107BD
:10010000C9F70E942A010C94990A0C94450A000030
:100110002F923F924F925F926F927F928F929F9217
:10012000AF92BF92CF92DF92EF92FF920F931F9305
:10013000CF93DF93E42FF52F419050804F925F9241
:10014000E42FF52F4DB65EB6419250820C94A80074
:10015000E62FF72F419050804DBE5EBE5F904F90CE
:10016000E62FF72F41925082DF91CF911F910F918F
:10017000FF90EF90DF90CF90BF90AF909F908F90C7
:100180007F906F905F904F903F902F900C941A0744
:10019000E62FF72F419150814DBF5EBF0C9424078D
:1001A0002F923F924F925F926F927F928F929F9287
:1001B000AF92BF92CF92DF92EF92FF920F931F9375
:1001C000CF93DF93E42FF52F419050804F925F92B1
:1001D000E42FF52F4DB65EB6419250820C94C800C4
:1001E000E82FF92F419150814DBF5EBFE62FF72FC9
:1001F0000994000060E472E48FE090E00C946505DF
:100200008091D402811115C061E08091DD0290914E
:10021000DE02892B09F060E0862F90E09093DE02E9
:100220008093DD02809100010E94410381E00C94E3
:10023000E6061092D402089561E0809100010E94C8
:10024000050326E040E052EC61E070E08BEE93E0C5
:100250000C9446040E94A1020E941C0180E00E94AE
:100260003F0680E090E00895F894FC0101900020A2
:10027000E9F73197AF01481B590BBC018BEE93E0B6
:100280000E943A058EEA93E0892B11F00E94AE039A
:10029000789408950F931F93CF93DF9300D0CDB739
:1002A000DEB78DB79EB79A8389838091CE029091F5
:1002B000CF02892B39F489819A819093CF02809360
:1002C000CE021BC02091CE023091CF0289819A814B
:1002D0002817390791F061E0809100010E944103E5
:1002E000F89489E891E00E9434010EEA13E00115C8
:1002F0001105E9F30E94AE03FACFF8948EEA93E079
:10030000892B11F00E94AE0378940F900F90DF912B
:10031000CF911F910F910895CF93DF9389EC91E0D6
:100320000E9434018091DC028F5F8093DC0281E0C7
:100330008093D4028DB79EB72091D2023091D30220
:10034000232B29F49093D3028093D20218C02091DA
:10035000D2023091D3022817390789F061E08091E9
:1003600000010E944103F89485EA91E00E94340163
:10037000CEEAD3E02097F1F30E94AE03FBCF82E0F8
:100380000E94E6068FED93E00E9419068091D40248
:100390008111FCCF81EC91E00E9434018DB79EB7B2
:1003A0002091D2023091D3022817390789F061E0F9
:1003B000809100010E944103F89481ED91E00E9438
:1003C0003401CEEAD3E02097F1F30E94AE03FBCFD5
:1003D0008091DA028F5F8093DA02DF91CF910895E6
:1003E000CF93DF938DEE91E00E9434018DB79EB7DD
:1003F0002091D0023091D102232B29F49093D10285
:100400008093D00218C02091D0023091D1022817D9
:10041000390789F061E0809100010E944103F8945E
:1004200085EF91E00E943401CEEAD3E02097F1F30A
:100430000E94AE03FBCF8091DB028F5F8093DB02D3
:100440008FED93E00E94CC0583E00E94E606809148
:10045000D9028F5F8093D902DF91CF91089581E116
:1004600092E00E9434018091D8028F5F8093D8027D
:1004700084E00E94E6068091D7028F5F8093D702C6
:10048000089589E192E00E9434018091D6028F5F45
:100490008093D60285E00C94E60681E292E00E9409
:1004A00034018091D5028F5F8093D50208951F9209
:1004B0000F920FB60F9211242F933F938F939F9318
:1004C000AF93BF938091E3039091E403A091E50380
:1004D000B091E6033091E20323E0230F2D3720F49F
:1004E0000196A11DB11D05C026E8230F0296A11D8E
:1004F000B11D2093E2038093E3039093E403A09360
:10050000E503B093E6038091E7039091E803A0919F
:10051000E903B091EA030196A11DB11D8093E703A1
:100520009093E803A093E903B093EA03BF91AF91DE
:100530009F918F913F912F910F900FBE0F901F9021
:100540001895789484B5826084BD84B5816084BD3B
:1005500085B5826085BD85B5816085BDEEE6F0E03C
:10056000808181608083E1E8F0E010828081826098
:100570008083808181608083E0E8F0E08081816019
:100580008083E1EBF0E0808184608083E0EBF0E049
:10059000808181608083EAE7F0E0808184608083ED
:1005A0008081826080838081816080838081806897
:1005B00080831092C1000895833081F028F4813047
:1005C00099F08230A1F008958730A9F08830B9F011
:1005D0008430D1F4809180008F7D03C080918000B1
:1005E0008F7780938000089584B58F7702C084B59B
:1005F0008F7D84BD08958091B0008F7703C0809176
:10060000B0008F7D8093B0000895CF93DF9390E08A
:10061000FC01E458FF4F2491FC01E057FF4F849107
:10062000882361F190E0880F991FFC01E255FF4F8C
:10063000C591D491FC01EC55FF4FA591B491611186
:1006400009C09FB7F8948881209582238883EC9114
:100650002E230BC0623061F49FB7F8943881822F4B
:10066000809583238883EC912E2B2C939FBF06C00B
:100670008FB7F894E8812E2B28838FBFDF91CF911D
:1006800008951F93CF93DF93282F30E0F901E859A5
:10069000FF4F8491F901E458FF4FD491F901E057DD
:1006A000FF4FC491CC23C9F0162F81110E94DC02A8
:1006B000EC2FF0E0EE0FFF1FEC55FF4FA591B4912A
:1006C0008FB7F894111105C09C91ED2FE095E923A7
:1006D00002C0EC91ED2BEC938FBFDF91CF911F9176
:1006E0000895FC01918D228D892F90E0805C9F4FB1
:1006F000821B91098F7399270895FC01918D828D3A
:10070000981731F0828DE80FF11D858D90E00895E6
:100710008FEF9FEF0895FC01918D828D981761F006
:10072000828DDF01A80FB11D5D968C91928D9F5F28
:100730009F73928F90E008958FEF9FEF0895FC01D3
:10074000538D448D252F30E0842F90E0821B930B36
:10075000541710F0CF9608950197089583E095E01F
:10076000892B49F080E090E0892B29F00E94030555
:1007700081110C9400000895FC01848DDF01A80F05
:10078000B11DA35ABF4F2C91848D90E001968F73B9
:100790009927848FA689B7892C93A089B1898C91D8
:1007A00080648C93938D848D981306C00288F3899E
:1007B000E02D80818F7D80830895CF93DF93EC01BE
:1007C000888D8823C9F0EA89FB89808185FD05C071
:1007D000A889B9898C9186FD0FC00FB607FCF5CFAB
:1007E000808185FFF2CFA889B9898C9185FFEDCFF3
:1007F000CE010E94BC03E7CFDF91CF910895EF9225
:10080000FF920F931F93CF93DF93EC0181E0888FCA
:100810009B8D8C8D981305C0E889F989808185FDB1
:1008200024C0F62E0B8D10E00F5F1F4F0F731127A2
:10083000E02E8C8DE8120CC00FB607FCFACFE889C9
:10084000F989808185FFF5CFCE010E94BC03F1CFED
:100850008B8DFE01E80FF11DE35AFF4FF0820B8FE5
:10086000EA89FB898081806207C0EE89FF89608305
:10087000E889F98980818064808381E090E0DF915C
:10088000CF911F910F91FF90EF900895CF92DF923B
:10089000EF92FF921F93CF93DF93EC016A017B01EC
:1008A000122FE889F98982E080834115514E610554
:1008B0007105B1F060E079E08DE390E0A701960169
:1008C0000E94710ADA01C9010197A109B109B6951F
:1008D000A79597958795AC01411580E15807A8F039
:1008E000E889F989108260E874E88EE190E0A70158
:1008F00096010E94710ABA01A9014150510961098A
:1009000071097695679557954795EC85FD855083D8
:10091000EE85FF854083188EEC89FD891083EA8976
:10092000FB89808180618083EA89FB89808188607E
:100930008083EA89FB89808180688083EA89FB89DA
:1009400080818F7D8083DF91CF911F91FF90EF9009
:10095000DF90CF9008951F920F920FB60F9211243F
:100960002F938F939F93EF93FF93E091FB03F0916D
:10097000FC038081E0910104F091020482FD12C029
:100980009081809104048F5F8F73209105048217FA
:1009900051F0E0910404F0E0E551FC4F958F809315
:1009A000040401C08081FF91EF919F918F912F915D
:1009B0000F900FBE0F901F9018951F920F920FB6B9
:1009C0000F9211242F933F934F935F936F937F93D5
:1009D0008F939F93AF93BF93EF93FF938BEE93E02F
:1009E0000E94BC03FF91EF91BF91AF919F918F91B6
:1009F0007F916F915F914F913F912F910F900FBE1B
:100A00000F901F9018958BEE93E00E94710321E0E8
:100A1000892B09F420E0822F0895EBEEF3E0138296
:100A2000128288EE93E0A0E0B0E084839583A683F1
:100A3000B7838FEB92E09183808385EC90E095877C
:100A4000848784EC90E09787868780EC90E0918B98
:100A5000808B81EC90E0938B828B82EC90E0958B85
:100A6000848B86EC90E0978B868B118E128E138E82
:100A7000148E0895CF92DF92EF92FF920F931F93FF
:100A8000CF93DF936C017A018B01C0E0D0E0CE15EB
:100A9000DF0589F0D8016D918D01D601ED91FC91B2
:100AA0000190F081E02DC6010995892B11F47E019A
:100AB00002C02196ECCFC701DF91CF911F910F911A
:100AC000FF90EF90DF90CF900895109281001092E8
:100AD00080001092820010928500109284006115AF
:100AE00020E172078105910548F4E4E0660F771F65
:100AF000EA95E1F76150710981E042C0611520E893
:100B000072078105910530F4660F771F61507109F6
:100B100082E036C06C3F2FEF720723E08207910519
:100B200070F4DC01CB0142E0B695A79597958795C7
:100B30004A95D1F7BC016150710983E021C061156C
:100B4000710520E18207910570F4DC01CB0134E0EE
:100B5000B695A795979587953A95D1F7BC016150C1
:100B6000710984E00DC0DC01CB0126E0B695A795A4
:100B7000979587952A95D1F7BC016150710985E059
:100B800092E096BB90936F00709389006093880009
:100B90008860809381000895AF92BF92DF92EF92B8
:100BA000FF920F931F93CF93DF9300D0CDB7DEB7A3
:100BB000FC01892B81F1A0912F02B0913002ED90C0
:100BC000FC90DFB6F894D70117968D919C911897F9
:100BD0000197E9F49281992319F09150928314C0FE
:100BE0008F01BE016F5F7F4F89E292E00E94D308C0
:100BF0005C0169817A8140E050E0C8010E94C80729
:100C0000B501C7010E94EB0980E090E002C081E0DD
:100C100090E0DFBE02C08EE090E00F900F90DF9179
:100C2000CF911F910F91FF90EF90DF90BF90AF9009
:100C30000895CF93FC01892BF1F0CFB7F894608130
:100C400071816115710581F0DB018D919C9191831A
:100C5000808389E292E00E94FB08892B41F089E2BF
:100C600092E00E94980903C082818F5F8283CFBF88
:100C700080E090E002C08EE090E0CF9108954F9226
:100C80005F926F927F928F929F92AF92BF92CF921C
:100C9000DF92EF92FF920F931F93CF93DF9300D0D9
:100CA000CDB7DEB700912F02109130029FB7F894B4
:100CB000D80118962D913C911997232B09F06DC0FE
:100CC000F82E87E49AE09A838983C0903302D0900B
:100CD000340281E090E019969C938E9318971A96AF
:100CE000FC920E94FA004090350250903602480172
:100CF000B2E08B0E911CF20184E0F89EE00DF11D34
:100D00001124A280B380E12CF12C2F01662463947E
:100D1000712CEA14FB0431F1D201ED91FC91C70171
:100D2000880F991FE80FF91F40815181DA0114964D
:100D3000ED91FC91159780818F5F80837382628231
:100D4000F80164817581DB018D919C9111979583E8
:100D500084831D921C92C4010E940708BFEFEB1A06
:100D6000FB0AD7CFF80180859185019721F482E0B5
:100D700090E091878087D80118968D919C91199762
:100D8000029779F4F60162817381AB01C6010E947A
:100D9000D000C6010E944A0804C09FBF81E090E0D5
:100DA00002C080E090E00F900F90DF91CF911F91F3
:100DB0000F91FF90EF90DF90CF90BF90AF909F90FA
:100DC0008F907F906F905F904F900895FF920F9358
:100DD0001F93CF93DF9390E020912D0230912E024C
:100DE00082179307F0F4E0912B02F0912C02880F08
:100DF000991FE80FF91F00811181F8018781908503
:100E0000029778F4FFB6F894C8010E943808EC0104
:100E1000892B29F4B80189E292E00E947908FFBE8B
:100E200002C0C3E0D0E0CE01DF91CF911F910F91BE
:100E3000FF900895DC011496ED91FC91159784E0E4
:100E400090E0938382830895EC01EC81FD818181A0
:100E500024E030E0338322838F3F09F07894E985E2
:100E6000FA850995E0912F02F0913002108A87856A
:100E7000882319F0178685858FBF8189882311F013
:100E8000118A78948FB7F8946FE27AE08A819B8117
:100E90000E94F0000F931F93CF93DF93CFB7F89486
:100EA00089E292E00E949809CFBF00912F02109131
:100EB0003002C0913102D0913202F80180859185D3
:100EC000029729F42097C9F3FE010995F6CF809186
:100ED000330290913402DF91CF911F910F910C94C6
:100EE000140A0F931F93CF93DF93EC01A881B9816C
:100EF000EB01E881F9811696CD91DC911797209747
:100F0000B1F08A819B813097E1F1EC010C811D8168
:100F100022813381E9014C815D81E8013981EA0157
:100F20002981321770F522E030E0E8010BC03097DC
:100F300041F1EC018C819D81EC014C815D8122E0CD
:100F400030E0EA013B832A8320813181EB01398340
:100F50002883C281D3814C815D8116962D913C916D
:100F60001797318320831796FC93EE931697CD93B2
:100F7000DC932C85FA013181321728F4FA012183A0
:100F800002C080E090E0DF91CF911F910F91089512
:100F90000F931F93CF93DF93DB011296ED91FC919A
:100FA0001397A481B5814115510511F0238502C025
:100FB00011962C91EC01E881F981A0E0B0E0309726
:100FC00091F0C281D3810C811D814115510511F031
:100FD0003B8502C0E8013981321728F0DF0101901A
:100FE000F081E02DECCF109729F06D937C9380E099
:100FF00090E005C0DC016D937C9381E090E0EB0113
:10100000F983E883DF91CF911F910F910895FB0140
:101010005383428341E050E00C94C807EF92FF9263
:101020000F931F93CF93DF938C01FC01C081D1817B
:10103000EE80FF80F701808191819F838E83C801BC
:101040000E947107EE81FF81892B51F4309719F0CE
:101050008281938103C0F80184819581998388837B
:10106000C701DF91CF911F910F91FF90EF900895ED
:10107000DC011496ED91FC91159790811D968C9151
:10108000981728F49F5F908380E090E0089584E0B3
:1010900090E00895DC011496ED91FC9115971B9654
:1010A0008C918183808181508083811103C0138260
:1010B0001282089581E090E09383828308952091C5
:1010C0002B0290912C02E22FF92FE80FF11DE80F6F
:1010D000F11D60817181DB011496ED91FC911597F2
:1010E00080818F5F808340E050E089E292E00C9441
:1010F000B309CF93DF93DB011496CD91DC91159763
:10110000E0912F02F091300280819181DC011496F0
:101110002D913C911597D90111965C914981A4813B
:10112000B581541718F54D915C91119755834483FF
:1011300042E050E0E9015B834A8313967C936E930F
:1011400012972681378111963C932E93B783A683FD
:1011500071836083DB011496ED91FC9115971782E2
:1011600016820E94EB0981E090E01AC08A819B817F
:10117000892B31F481E090E09B838A831F821E8259
:101180008D919C9111979583848311961C921E9248
:10119000AB01BD01CF0102960E94070880E090E0FC
:1011A000DF91CF910895EF92FF920F931F93CF930A
:1011B000DF937B01C0912F02D0913002FE0101919B
:1011C0001191BF018FE292E00E940E08D7018D932A
:1011D0009C93D8011496ED91FC91159783E090E0D3
:1011E0009383828388819981DF91CF911F910F91A1
:1011F000FF90EF9008950F931F93CF93DF93DB0140
:1012000012964D915C911397FA01C481D58100919A
:101210002F021091300282E090E09B838A838385C5
:101220008983C80102960E940708019771F4D801CA
:10123000ED91FC910480F581E02D81E090E0398111
:101240002181231720F080E002C080E090E0DF9150
:10125000CF911F910F910895AF92BF92CF92DF92DD
:10126000EF92FF920F931F93CF93DF93C0912F02C2
:10127000D0913002FE01E190F1906F01F7010481FD
:101280001581FB01F182E082F8018281938104974C
:10129000D9F4B6018FE292E00E940E085C01C8808A
:1012A000D980EC14FD0421F0C7010E944A0804C053
:1012B000F8019081915090838C819D81F5019183FB
:1012C0008083BD82AC8228C06E817F81FB018081DA
:1012D00091819F838E83F7018385F801818381E06B
:1012E00090E0938382838081813011F4178216828B
:1012F000A701C6010E940708B6018FE292E00E9492
:101300007107892B39F4EE81FF81C280D380D982A5
:10131000C88202C0C880D980C601DF91CF911F91D9
:101320000F91FF90EF90DF90CF90BF90AF90089516
:10133000CF93DF93C0912F02D0913002BE016E5F38
:101340007F4F8FE292E00E947107009739F0688129
:1013500079810E94EB0981E090E002C080E090E09A
:10136000DF91CF910895CF93DF93E0912F02F09119
:1013700030028081918126813781EC01AC81BD8171
:101380001296CD91DC911397249731F4C2E0D0E00E
:101390001396DC93CE9312977183608341155105A8
:1013A00069F4A481B5814D915C9111975583448373
:1013B00011961C921E92B783A68302C05783468360
:1013C0000680F781E02D7383628331832083DF9170
:1013D000CF910C94EB09FB01A481B58112962D915C
:1013E0003C911397DC0112964D915C9113976281A9
:1013F0007381CF012230310511F40C9488000C94D4
:10140000D000CB01DB011496ED91FC911597228160
:10141000338112966D917C9113972230310511F42E
:101420000C94A8000C94C800DC0112966D917C917C
:101430001397ED91FC9140815181DB01ED91FC917D
:10144000228933892115310529F4DB01ED93FC93C1
:101450000C94A80024173507C1F3F901F1CFCF93FD
:10146000DF9300D0CDB7DEB7BE016F5F7F4F89E25B
:1014700092E00E942C09BC0189819A810E94010A94
:101480000F900F90DF91CF910895F894FFCFEAE885
:1014900008958F939F9380E00E94510A9F918F91AE
:1014A00018951F920F920FB60F9211242F933F930E
:1014B0004F935F936F937F93AF93BF93EF93FF939C
:1014C0000E945F08FF91EF91BF91AF917F916F9163
:1014D0005F914F913F912F910F900FBE0F901F90F2
:1014E0000895A1E21A2EAA1BBB1BFD010DC0AA1F65
:1014F000BB1FEE1FFF1FA217B307E407F50720F07D
:10150000A21BB30BE40BF50B661F771F881F991FF7
:101510001A9469F760957095809590959B01AC0140
:10152000BD01CF010895EE0FFF1F0590F491E02D4E
:061530000994F894FFCFBE
:101536000D00A1020000140100000000FF000000E1
:1015460000000000180100001C010000200100003E
:1015560024010000280100000000000000800000B7
:101566000000000000000001000000000000000074
:101576000002000000000000000000010000000062
:101586000000000000010000000000000000000153
:101596000000000000000000010004000000000040
:1015A6000000DE035E0300005441534B20256420F7
:1015B60053503C25703E0D0A0054657374204661F5
:1015C600696C65642121212C206C696E653A31377E
:1015D60037200D0A0054657374204661696C656492
:1015E6002121212C206C696E653A323433200D0A94
:1015F6000052656C65617365205441534B310D0A89
:101606000054657374204661696C65642121212C40
:10161600206C696E653A323537200D0A0054415305
:101626004B320D0A0054657374204661696C65641B
:101636002121212C206C696E653A323734200D0A3F
:10164600005441534B330D0A005441534B340D0A99
:10165600005441534B350D0A0088043F020700022F
:10166600014A01A102390201003D0201005B024D5F
:10167600025B026902770285029302A102B7027633
:10168600012C010002000001808001AF02720136C8
:10169600010100008C01010101B302740140010245
:1016A6000100F001020201B70276014A01030000BF
:1016B6002F02010101B70276015401040000410224
:1016C600010101B70276015E010500004D0201012C
:1016D60001B702760168010603004A070000015FB0
:1016E600038000DF0280000000000000000000FF11
:0E16F600033A059F03DD0371038B037D0300A0
:00000001FF
