:100000000C945D000C9485000C9485000C94850084
:100010000C9485000C9485000C9485000C9485004C
:100020000C9485000C9485000C9485000C947A1334
:100030000C9485000C9485000C9485000C9485002C
:100040000C943D0C0C9485000C94910E0C94C30EF2
:100050000C9485000C9485000C9485000C9485000C
:100060000C9485000C94850000000008000201003B
:100070000003040700000000000000000102040863
:100080001020408001020408102001020408102002
:10009000040404040404040402020202020203032E
:1000A0000303030300000000250028002B000000CC
:1000B0000000240027002A00F30E11241FBECFEFFA
:1000C000D8E0DEBFCDBF12E0A0E0B1E0E4EBF1E3A9
:1000D00002C005900D92A638B107D9F724E0A6E832
:1000E000B2E001C01D92A63DB207E1F710E0CDE5F8
:1000F000D0E004C02197FE010E94ED15CC35D10758
:10010000C9F70E94720B0C94D8180C947613000057
:100110002F923F924F925F926F927F928F929F9217
:10012000AF92BF92CF92DF92EF92FF920F931F9305
:10013000CF93DF93E42FF52F419050804F925F9241
:10014000E42FF52F4DB65EB6419250820C94A80074
:10015000E62FF72F419050804DBE5EBE5F904F90CE
:10016000E62FF72F41925082DF91CF911F910F918F
:10017000FF90EF90DF90CF90BF90AF909F908F90C7
:100180007F906F905F904F903F902F900C94A410B1
:10019000E62FF72F419150814DBF5EBF0C94AE10FA
:1001A0002F923F924F925F926F927F928F929F9287
:1001B000AF92BF92CF92DF92EF92FF920F931F9375
:1001C000CF93DF93E42FF52F419050804F925F92B1
:1001D000E42FF52F4DB65EB6419250820C94C800C4
:1001E000E82FF92F419150814DBF5EBFE62FF72FC9
:1001F000099400008091CF029091D0028530910542
:10020000F9F48091B9049091BA04019771F1809149
:10021000B7049091B804019741F11092D102109265
:10022000D2021092D3021092D4021092D0021092F5
:10023000CF0282E090E09093010180930001089545
:100240008430910521F38330910539F48091BB040A
:100250009091BC04019709F708950197029728F43B
:100260008091B1049091B204D6CF08954F925F92DD
:100270006F927F928F929F92AF92BF92CF92DF92B6
:10028000EF92FF92CF93DF93CDB7DEB76C970FB6A7
:10029000F894DEBF0FBECDBF8091B9049091BA042F
:1002A000019799F08091B7049091B804019769F093
:1002B0008091BB049091BC04019739F08091B10406
:1002C0009091B204019709F0F3C38091CE0282307D
:1002D00024F48F5F8093CE023AC02091CA023091FD
:1002E000CB024091CC025091CD026091B304709149
:1002F000B4048091B5049091B6040E94A2136B01DE
:100300007C012091D6023091D7024091D8025091C1
:10031000D9026091C6027091C7028091C802909183
:10032000C9020E94A2139B01AC01C701B6010E9441
:10033000A3132DEC3CEC4CEC5DE30E941414609391
:10034000C2027093C3028093C4029093C50280904E
:10035000B3049090B404A090B504B090B604809219
:10036000CA029092CB02A092CC02B092CD02C09071
:10037000D602D090D702E090D802F090D902C09275
:10038000C602D092C702E092C802F092C90220E0F1
:1003900030E040E05FE3C501B4010E943615698397
:1003A0007A838B839C836093BE027093BF02809399
:1003B000C0029093C102DC01CB018093A904909309
:1003C000AA04A093AB04B093AC0426E636E646E656
:1003D00050E4C501B4010E9414149B01AC010E94B9
:1003E00036152B013C0120E030E040E451E40E944E
:1003F00014146D837E838F83988760939A02709321
:100400009B0280939C0290939D0220E030E040E6A6
:1004100051E4C301B2010E94141469877A878B8763
:100420009C876093920270939302809394029093BE
:10043000950220E030E040E85DE3C301B2010E9494
:1004400036156D877E878F87988B609396027093A1
:100450009702809398029093990220E030E040EC5C
:1004600050E4C301B2010E941414698B7A8B8B8B08
:100470009C8B60938E0270938F0280939002909376
:10048000910220E030E040EA50E4C301B2010E9452
:1004900014146D8B7E8B8F8B988F60938A02709370
:1004A0008B0280938C0290938D0220E030E040E834
:1004B0005EE3C301B2010E943615698F7A8F8B8F7C
:1004C0009C8F60938602709387028093880290933A
:1004D000890220E030E0A901C701B6010E940F1493
:1004E000882309F48FC026E636E646E650E4C701C5
:1004F000B6010E9414142B013C019B01AC016091D8
:10050000AD047091AE048091AF049091B0040E944C
:1005100014146093BA027093BB028093BC02909350
:10052000BD02A30192016D817E818F8198850E9419
:1005300014146093B6027093B7028093B80290933C
:10054000B902A301920169857A858B859C850E94F9
:1005500014146093AE027093AF028093B002909334
:10056000B102A30192016D857E858F8598890E94D5
:1005700014146093B2027093B3028093B402909308
:10058000B502A301920169897A898B899C890E94AD
:1005900014146093A6027093A7028093A80290930C
:1005A000A902A30192016D897E898F89988D0E948D
:1005B00014146093A2027093A3028093A4029093F8
:1005C000A502A3019201698D7A8D8B8D9C8D0E946D
:1005D000141460939E0270939F028093A0029093E4
:1005E000A102A301920169817A818B819C810E9481
:1005F00014146093AA027093AB028093AC029093A0
:10060000AD0244C08FEF9FEFAFE7BFE78093BA0220
:100610009093BB02A093BC02B093BD028093B6023C
:100620009093B702A093B802B093B9028093AE0240
:100630009093AF02A093B002B093B1028093B20244
:100640009093B302A093B402B093B5028093A60234
:100650009093A702A093A802B093A9028093A2024C
:100660009093A302A093A402B093A50280939E024C
:1006700090939F02A093A002B093A1028093AA023C
:100680009093AB02A093AC02B093AD021092D10252
:100690001092D2021092D3021092D40220E030E0E5
:1006A000A901C701B6010E9431151816ACF42091BA
:1006B000B2023091B3024091B4025091B502609100
:1006C000BA027091BB028091BC029091BD020E945F
:1006D0000F1418166CF11FC020E030E0A901C7010B
:1006E000B6010E940F1418160CF429C1209196022D
:1006F0003091970240919802509199026091AD0417
:100700007091AE048091AF049091B0040E940F14D8
:1007100018160CF4F4C180E090E0A0E0B1E48093FE
:10072000D1029093D202A093D302B093D4024BC0D3
:1007300020E030E0A901C701B6010E940F1418168D
:10074000ACF62091AE023091AF024091B0025091D0
:10075000B1026091BA027091BB028091BC0290918B
:10076000BD020E940F1418168CF126E636E646E606
:1007700050E46091B3047091B4048091B5049091F9
:10078000B6040E9414149B01AC010E9436156B0143
:100790007C016091AD047091AE048091AF049091A2
:1007A000B0049B01AC010E94A3139B01AC01C701E3
:1007B000B6010E9414146093D1027093D202809308
:1007C000D3029093D40281E090E038C120E030E081
:1007D000A901C701B6010E940F1418160CF099C1A7
:1007E0002091B6023091B7024091B8025091B902FF
:1007F0006091BA027091BB028091BC029091BD02DF
:100800000E940F1418160CF0B7C120E030E0A901C7
:10081000C701B6010E940F1418160CF099C120915F
:10082000AA023091AB024091AC025091AD026091AE
:10083000BA027091BB028091BC029091BD020E94ED
:100840000F1418160CF0E7C120E030E0A901C70131
:10085000B6010E940F1418160CF0C9C12091A6020F
:100860003091A7024091A8025091A9026091BA026A
:100870007091BB028091BC029091BD020E940F1446
:1008800018160CF017C220E030E0A901C701B6012C
:100890000E940F1418160CF0F9C12091A202309199
:1008A000A3024091A4025091A5026091BA027091F6
:1008B000BB028091BC029091BD020E940F141816D9
:1008C0000CF01CC220E030E0A901C701B6010E9473
:1008D0000F1418160CF0FDC120919E0230919F025A
:1008E0004091A0025091A1026091BA027091BB02A6
:1008F0008091BC029091BD020E940F1418160CF05A
:100900006CC220E030E0A901C701B6010E940F14BB
:1009100018160CF042C220919E0230919F02409125
:10092000A0025091A1026091BA027091BB02809125
:10093000BC029091BD020E9431151816FCF020E017
:1009400030E0A901C701B6010E940F1418160CF47B
:1009500099C020918602309187024091880250917F
:1009600089026091AD047091AE048091AF049091C2
:10097000B0040E94311518160CF084C0C090BD045C
:10098000D090BE04E090BF04F090C004A501940193
:10099000C701B6010E943115A5019401181664F52E
:1009A000C701B6010E94A2136B017C0120E030E078
:1009B00040E450E40E94311518166CF480E090E099
:1009C000A0E4B0E48093D1029093D202A093D3022A
:1009D000B093D40208C0C092D102D092D202E09269
:1009E000D302F092D40285E090E09093D0028093FD
:1009F000CF0281E090E042C0C701B6010E940F140F
:100A000087FF34C0A5019401C701B6010E94A2135B
:100A100020E030E040E450EC0E940F1487FF17C044
:100A200080E090E0A0E4B0E48093D1029093D20201
:100A3000A093D302B093D40285E090E09093D002CB
:100A40008093CF0210920101109200011BC0A701F8
:100A50009601C501B4010E94A2136093D102709364
:100A6000D2028093D3029093D402E6CF85E090E047
:100A70009093D0028093CF0282E090E090930101A6
:100A8000809300016C960FB6F894DEBF0FBECDBF09
:100A9000DF91CF91FF90EF90DF90CF90BF90AF901C
:100AA0009F908F907F906F905F904F900C94FA0082
:100AB0001092D1021092D2021092D3021092D4025C
:100AC0001092D0021092CF0282E090E09093010148
:100AD000809300016C960FB6F894DEBF0FBECDBFB9
:100AE000DF91CF91FF90EF90DF90CF90BF90AF90CC
:100AF0009F908F907F906F905F904F90089520E02F
:100B000030E0A901C701B6010E94311518160CF496
:100B100018CE20919202309193024091940250910C
:100B200095026091AD047091AE048091AF049091F4
:100B3000B0040E940F1418160CF017CE20E030E01D
:100B4000A901C701B6010E94311518160CF448CE50
:100B500020919A0230919B0240919C0250919D02FB
:100B60006091AD047091AE048091AF049091B00497
:100B70000E940F1418168CF126E636E646E650E47D
:100B80006091B3047091B4048091B5049091B6045F
:100B90000E9414149B01AC010E9436156B017C016C
:100BA0006091AD047091AE048091AF049091B00457
:100BB0009B01AC010E94A3139B01AC01C701B601CC
:100BC0000E9414146093D1027093D2028093D302D6
:100BD0009093D40282E090E031CF20E030E0A90190
:100BE000C701B6010E94311518160CF418CE2091D9
:100BF000A9043091AA044091AB045091AC046091D7
:100C0000AD047091AE048091AF049091B0040E9445
:100C10000F1418168CF126E636E646E650E460918D
:100C2000B3047091B4048091B5049091B6040E940D
:100C300014149B01AC010E9436156B017C0160917C
:100C4000AD047091AE048091AF049091B0049B010B
:100C5000AC010E94A3139B01AC01C701B6010E9425
:100C600014146093D1027093D2028093D3029093B4
:100C7000D40283E090E0E2CE20E030E0A901C70199
:100C8000B6010E94311518160CF4E8CD20918E02A1
:100C900030918F0240919002509191026091AD0489
:100CA0007091AE048091AF049091B0040E940F1433
:100CB00018162CF01092D0021092CF02DDCE20E058
:100CC00030E0A901C701B6010E94311518160CF4D5
:100CD000E4CD20918A0230918B0240918C02509198
:100CE0008D026091AD047091AE048091AF0490913B
:100CF000B0040E940F1418160CF445C026E636E620
:100D000046E650E46091B3047091B4048091B50458
:100D10009091B6040E9414149B01AC010E943615F8
:100D20006B017C016091AD047091AE048091AF04C1
:100D30009091B0049B01AC010E94A3139B01AC01F4
:100D4000C701B6010E9414146093D1027093D202BD
:100D50008093D3029093D40220E030E040E450E44A
:100D60000E943115181664F480E090E0A0E4B0E42D
:100D70008093D1029093D202A093D302B093D40275
:100D800084E090E05BCE20E030E0A901C701B6012D
:100D90000E94311518160CF49FCD4090AD04509070
:100DA000AE046090AF047090B00420918602309140
:100DB00087024091880250918902C301B2010E94CA
:100DC0000F1420E030E0A90118160CF48EC0C70102
:100DD000B6010E94311518160CF526E636E646E6F1
:100DE00050E4C701B6010E9414149B01AC010E949B
:100DF00036156B017C0120918A0230918B02409163
:100E00008C0250918D026091AD047091AE0480917E
:100E1000AF049091B0040E94A2138CCF20E030E088
:100E2000A901C701B6010E940F1487FF5BC0209182
:100E3000B3043091B4044091B5045091B60460916C
:100E4000BD047091BE048091BF049091C0040E94C3
:100E5000311518160CF046C026E636E646E650E494
:100E6000C701B6010E9414149B01AC010E94361503
:100E70006B017C0120918A0230918B0240918C029F
:100E800050918D02C301B2010E94A2139B01AC01DB
:100E90000E94A3139B01AC01C701B6010E94141468
:100EA0006B017C0120E030E040E450E40E94311509
:100EB00018164CF0C092D102D092D202E092D30226
:100EC000F092D4020CC080E090E0A0E4B0E4809303
:100ED000D1029093D202A093D302B093D40284E0C3
:100EE00090E083CD84E090E0C3CDC701B6010E94BD
:100EF000311518160CF40FCD2CCDCF92DF92EF9256
:100F0000FF926B017C018091D502811104C081E0C8
:100F10008093D50220C0A70196016091DA027091FA
:100F2000DB028091DC029091DD020E94A2132DEC85
:100F30003CEC4CEC5DE30E94141426E636E646E6F3
:100F400050E40E9436156093D6027093D7028093C6
:100F5000D8029093D902C092DA02D092DB02E092DA
:100F6000DC02F092DD02FF90EF90DF90CF900895C9
:100F70008091D1049091D2049093BA048093B904E3
:100F80008091C5049091C6049093B8048093B704EF
:100F90008091D3049091D4049093BC048093BB04BB
:100FA0008091CF049091D0049093B2048093B104C7
:100FB0008091C1049091C204A091C304B091C40473
:100FC0008093B3049093B404A093B504B093B60493
:100FD0008091C7049091C804A091C904B091CA043B
:100FE0008093AD049093AE04A093AF04B093B0048B
:100FF0008091CB049091CC04A091CD04B091CE040B
:101000008093BD049093BE04A093BF04B093C0042A
:1010100008955F926F927F928F929F92AF92BF924C
:10102000CF92DF92EF92FF920F931F93CF93DF93B4
:10103000CDB7DEB70DB71EB78CE38093DE0220E09C
:1010400030E040E251E46091AD047091AE048091D3
:10105000AF049091B0040E9436150E9486149B0143
:10106000CB01A12CB12CEAE0F0E0A5014F5F5F4F6E
:101070006A011816190634F4BF010E94A315CB01AA
:101080005601F3CF8DB69EB68DB79EB7841B950BD8
:101090000FB6F8949EBF0FBE8DBFADB7BEB7119609
:1010A0007D013F932F9380E891E09F938F93DF9290
:1010B0004F93FF92AF930E94F315F701AFEDB2E0AB
:1010C000C7018A0D9B1D2DB73EB7285F3F4F0FB656
:1010D000F8943EBF0FBE2DBFE817F90719F0219114
:1010E0002D93FACF0FB6F8949EBE0FBE8DBE8EE242
:1010F000F601E252FD4F80836091B3047091B40415
:101100008091B5049091B6040E948614462F572E04
:10111000862F952D612C712CEAE0F0E093012F5F72
:101120003F4F1816190634F4BF010E94A315CB01D6
:101130003901F4CF8DB69EB68DB79EB7821B930B47
:101140000FB6F8949EBF0FBE8DBFADB7BEB7119658
:101150007D015F924F9380E891E09F938F933F933F
:101160002F93FF92AF930E94F315F7012DB73EB76F
:10117000285F3F4F0FB6F8943EBF0FBE2DBFE12C46
:10118000F12CE614F70461F08191D701AA0DBB1D83
:10119000A252BD4F12968C933FEFE31AF30AF1CFA0
:1011A000EC0CFD1C0FB6F8949EBE0FBE8DBE670101
:1011B0004FEFC41AD40AF601E252FD4F8EE280834B
:1011C00020E030E040E251E46091D6027091D70215
:1011D0008091D8029091D9020E9436150E948614FF
:1011E000462F572E862F952D612C712CEAE0F0E0CA
:1011F00093012F5F3F4F1816190634F4BF010E9468
:10120000A315CB013901F4CFADB6BEB68DB79EB7ED
:10121000821B930B0FB6F8949EBF0FBE8DBFADB768
:10122000BEB711964D015F924F9380E891E09F9376
:101230008F933F932F939F92AF930E94F315F401E6
:101240002DB73EB7285F3F4F0FB6F8943EBF0FBE95
:101250002DBF80E090E08615970551F02191DC01CB
:10126000AE0DBF1DA252BD4F12962C930196F3CF27
:10127000C80ED91E0FB6F894BEBE0FBEADBE760125
:101280003FEFE31AF30AF701E252FD4F8EE280834B
:1012900020E030E040E251E46091A9047091AA049A
:1012A0008091AB049091AC040E9436150E94861484
:1012B000462F572E862F952D612C712CEAE0F0E0F9
:1012C00093012F5F3F4F1816190634F4BF010E9497
:1012D000A315CB013901F4CFADB6BEB68DB79EB71D
:1012E000821B930B0FB6F8949EBF0FBE8DBFADB798
:1012F000BEB711964D015F924F9380E891E09F93A6
:101300008F933F932F939F92AF930E94F315F40115
:101310002DB73EB7285F3F4F0FB6F8943EBF0FBEC4
:101320002DBF80E090E08615970551F02191DC01FA
:10133000AC0DBD1DA252BD4F12962C930196F3CF5A
:10134000E80EF91E0FB6F894BEBE0FBEADBE670123
:101350003FEFC31AD30AF601E252FD4F8EE28083BB
:1013600020E030E04AE754E46091D1027091D2026B
:101370008091D3029091D4020E9436150E94861467
:10138000462F772E862F972DA12CB12CEAE0F0E086
:1013900095012F5F3F4F1816190634F4BF010E94C4
:1013A000A315CB015901F4CF8DB79EB7821B930BC8
:1013B0000FB6F8949EBF0FBE8DBFADB7BEB71196E6
:1013C0004D017F924F9380E891E09F938F933F93DD
:1013D0002F939F92AF930E94F315A4012DB73EB7B0
:1013E000285F3F4F0FB6F8943EBF0FBE2DBFE0E021
:1013F000F0E0EA15FB0569F0DA012D91AD01CF01AE
:101400008E0D9F1D82529D4FDC0112962C933196BA
:10141000F0CFEC0DFD1DE252FD4F9EE291838091D5
:10142000CF02805D8283938380910001805D8483FD
:101430008EE3858316820FB6F8941EBF0FBE0DBFD4
:10144000DF91CF911F910F91FF90EF90DF90CF90A0
:10145000BF90AF909F908F907F906F905F90089516
:101460004F925F926F927F928F929F92AF92BF92B4
:10147000CF92DF92EF92FF92809106019091070147
:1014800081309105C9F540E050E068E472E4409392
:10149000C1045093C2046093C3047093C40440E039
:1014A00050E06CE872E44093CB045093CC0460931A
:1014B000CD047093CE0440E050E060E671E44093C8
:1014C000C7045093C8046093C9047093CA049093EE
:1014D000D2048093D1049093C6048093C504909362
:1014E000D4048093D3049093D0048093CF041092BB
:1014F000070110920601B9C08090C1049090C20407
:10150000A090C304B090C404C0900201D090030125
:10151000E0900401F0900501A7019601C501B40116
:101520000E94A2132DEC3CEC4CEC5DE30E943615BE
:1015300026E636E646E650E40E9414149B01AC0110
:101540006091C7047091C8048091C9049091CA0445
:101550000E94A2132B013C0120E030E046E953E455
:101560000E94311518164CF04092C7045092C804DE
:101570006092C9047092CA040CC080E090E0A6E9B1
:10158000B3E48093C7049093C804A093C904B093B4
:10159000CA0480910001909101010097D9F42DECCB
:1015A0003CEC4CEC5DE36091D1027091D2028091F1
:1015B000D3029091D4020E94361526E636E646E61E
:1015C00050E40E9436159B01AC01C501B4010E9494
:1015D000A2131CC0019711F52DEC3CEC4CEC5DE323
:1015E0006091D1027091D2028091D3029091D40285
:1015F0000E94361526E636E646E650E40E94361589
:101600009B01AC01C501B4010E94A3136093C10406
:101610007093C2048093C3049093C40420E030E02C
:1016200048EC52E4C701B6010E940F1487FF11C0B5
:1016300021E73DE34AE85FE3C701B6010E94A31337
:10164000609302017093030180930401909305015C
:101650000CC080E090E0A8ECB2E48093020190938B
:101660000301A0930401B0930501FF90EF90DF9078
:10167000CF90BF90AF909F908F907F906F905F9032
:101680004F90089560EA76E881E090E00C94620F54
:101690008091FE02811115C061E08091010390915B
:1016A0000203892B09F060E0862F90E090930203FB
:1016B00080930103809108010E94270D81E00C9422
:1016C00070101092FE02089561E0809108010E945E
:1016D000EB0C26E040E052EC61E070E08CE094E03E
:1016E0000C942C0E0E94870C0E94640B80E00E94D8
:1016F000C90F80E090E00895089508950895089531
:10170000F894FC0101900020E9F73197AF01481BE4
:10171000590BBC018CE094E00E94200F84E99DE00D
:10172000892B11F00E94940D789408950F931F93C4
:10173000CF93DF9300D0CDB7DEB78DB79EB79A8336
:1017400089838091FC029091FD02892B39F4898173
:101750009A819093FD028093FC021BC02091FC02B1
:101760003091FD0289819A812817390791F061E053
:10177000809108010E94270DF89484E991E00E946D
:10178000800B04E91DE001151105E9F30E94940D99
:10179000FACFF89484E99DE0892B11F00E94940D12
:1017A00078940F900F90DF91CF911F910F91089532
:1017B000CF92DF92EF92FF92809100038F5F809330
:1017C00000030E94300A0E94B807C090B304D09072
:1017D000B404E090B504F090B60420E030E040E8B6
:1017E0005FE3C701B6010E94311587FD13C020E0F9
:1017F00030E040E05FE36091AD047091AE04809111
:10180000AF049091B0040E940F1418161CF080EBE6
:1018100091E00CC020E030E040E85FE3C701B60192
:101820000E940F1487FF05C089EC91E00E94800B95
:101830001AC06091AD047091AE048091AF04909194
:10184000B0040E947D070E9436010E9409086EEDD7
:1018500072E08CE094E00E94600F6DEA71E08CE031
:1018600094E00E94600F8091FF028F5F8093FF02DF
:10187000FF90EF90DF90CF9008951F920F920FB6D8
:101880000F9211242F933F938F939F93AF93BF9306
:101890008091040490910504A0910604B09107047E
:1018A0003091030423E0230F2D3720F40196A11D6E
:1018B000B11D05C026E8230F0296A11DB11D20937E
:1018C00003048093040490930504A0930604B0934A
:1018D00007048091080490910904A0910A04B09132
:1018E0000B040196A11DB11D809308049093090477
:1018F000A0930A04B0930B04BF91AF919F918F9175
:101900003F912F910F900FBE0F901F9018957894D4
:1019100084B5826084BD84B5816084BD85B58260F4
:1019200085BD85B5816085BDEEE6F0E08081816092
:101930008083E1E8F0E01082808182608083808192
:1019400081608083E0E8F0E0808181608083E1EB6A
:10195000F0E0808184608083E0EBF0E08081816052
:101960008083EAE7F0E08081846080838081826008
:1019700080838081816080838081806880831092F1
:10198000C1000895833081F028F4813099F08230CD
:10199000A1F008958730A9F08830B9F08430D1F4EF
:1019A000809180008F7D03C0809180008F7780932D
:1019B0008000089584B58F7702C084B58F7D84BD83
:1019C00008958091B0008F7703C08091B0008F7D23
:1019D0008093B0000895CF93DF9390E0FC01E4582A
:1019E000FF4F2491FC01E057FF4F8491882361F160
:1019F00090E0880F991FFC01E255FF4FC591D491EB
:101A0000FC01EC55FF4FA591B491611109C09FB73E
:101A1000F8948881209582238883EC912E230BC033
:101A2000623061F49FB7F8943881822F80958323C8
:101A30008883EC912E2B2C939FBF06C08FB7F89410
:101A4000E8812E2B28838FBFDF91CF9108951F93BC
:101A5000CF93DF93282F30E0F901E859FF4F8491AD
:101A6000F901E458FF4FD491F901E057FF4FC491B9
:101A7000CC23C9F0162F81110E94C20CEC2FF0E08C
:101A8000EE0FFF1FEC55FF4FA591B4918FB7F8945F
:101A9000111105C09C91ED2FE095E92302C0EC9156
:101AA000ED2BEC938FBFDF91CF911F910895FC0137
:101AB000918D228D892F90E0805C9F4F821B910930
:101AC0008F7399270895FC01918D828D981731F0BD
:101AD000828DE80FF11D858D90E008958FEF9FEFC7
:101AE0000895FC01918D828D981761F0828DDF0140
:101AF000A80FB11D5D968C91928D9F5F9F73928F01
:101B000090E008958FEF9FEF0895FC01538D448D71
:101B1000252F30E0842F90E0821B930B541710F098
:101B2000CF9608950197089589EE9EE0892B49F09C
:101B300080E090E0892B29F00E94E90E81110C943D
:101B400000000895FC01848DDF01A80FB11DA35A88
:101B5000BF4F2C91848D90E001968F739927848FCD
:101B6000A689B7892C93A089B1898C9180648C93C4
:101B7000938D848D981306C00288F389E02D8081AF
:101B80008F7D80830895CF93DF93EC01888D882328
:101B9000C9F0EA89FB89808185FD05C0A889B989DA
:101BA0008C9186FD0FC00FB607FCF5CF808185FFB5
:101BB000F2CFA889B9898C9185FFEDCFCE010E9423
:101BC000A20DE7CFDF91CF910895EF92FF920F938F
:101BD0001F93CF93DF93EC0181E0888F9B8D8C8DD9
:101BE000981305C0E889F989808185FD24C0F62E07
:101BF0000B8D10E00F5F1F4F0F731127E02E8C8DA0
:101C0000E8120CC00FB607FCFACFE889F989808189
:101C100085FFF5CFCE010E94A20DF1CF8B8DFE0185
:101C2000E80FF11DE35AFF4FF0820B8FEA89FB8921
:101C30008081806207C0EE89FF896083E889F98925
:101C400080818064808381E090E0DF91CF911F915B
:101C50000F91FF90EF900895CF92DF92EF92FF9255
:101C60001F93CF93DF93EC016A017B01122FE88968
:101C7000F98982E080834115514E61057105B1F00B
:101C800060E079E08DE390E0A70196010E94B7152E
:101C9000DA01C9010197A109B109B695A7959795F0
:101CA0008795AC01411580E15807A8F0E889F989CA
:101CB000108260E874E88EE190E0A70196010E942E
:101CC000B715BA01A9014150510961097109769509
:101CD000679557954795EC85FD855083EE85FF8583
:101CE0004083188EEC89FD891083EA89FB89808105
:101CF00080618083EA89FB89808188608083EA89AA
:101D0000FB89808180688083EA89FB8980818F7D5F
:101D10008083DF91CF911F91FF90EF90DF90CF9064
:101D200008951F920F920FB60F9211242F938F9345
:101D30009F93EF93FF93E0911C04F0911D04808129
:101D4000E0912204F091230482FD12C090818091E1
:101D500025048F5F8F7320912604821751F0E09144
:101D60002504F0E0E45FFB4F958F8093250401C0CC
:101D70008081FF91EF919F918F912F910F900FBED6
:101D80000F901F9018951F920F920FB60F9211246B
:101D90002F933F934F935F936F937F938F939F9373
:101DA000AF93BF93EF93FF938CE094E00E94A20D5A
:101DB000FF91EF91BF91AF919F918F917F916F9123
:101DC0005F914F913F912F910F900FBE0F901F90F9
:101DD00018958CE094E00E94570D21E0892B09F4BE
:101DE00020E0822F0895ECE0F4E01382128288EE66
:101DF00093E0A0E0B0E084839583A683B78388E76F
:101E000092E09183808385EC90E09587848784ECD1
:101E100090E09787868780EC90E0918B808B81ECB7
:101E200090E0938B828B82EC90E0958B848B86EC98
:101E300090E0978B868B118E128E138E148E0895E0
:101E4000CF92DF92EF92FF920F931F93CF93DF9386
:101E50006C017A018B01C0E0D0E0CE15DF0589F07E
:101E6000D8016D918D01D601ED91FC910190F08129
:101E7000E02DC6010995892B11F47E0102C021963F
:101E8000ECCFC701DF91CF911F910F91FF90EF90A1
:101E9000DF90CF9008956115710579F0FB010190F5
:101EA0000020E9F73197AF01461B570BDC01ED919C
:101EB000FC910280F381E02D099480E090E0089588
:101EC0000C944B0F109281001092800010928200AF
:101ED0001092850010928400611520E1720781053F
:101EE000910548F4E4E0660F771FEA95E1F7615049
:101EF000710981E042C0611520E8720781059105F2
:101F000030F4660F771F6150710982E036C06C3F74
:101F10002FEF720723E08207910570F4DC01CB01FB
:101F200042E0B695A795979587954A95D1F7BC015C
:101F30006150710983E021C06115710520E18207BC
:101F4000910570F4DC01CB0134E0B695A795979527
:101F500087953A95D1F7BC016150710984E00DC0B5
:101F6000DC01CB0126E0B695A795979587952A9534
:101F7000D1F7BC016150710985E092E096BB909366
:101F80006F0070938900609388008860809381005F
:101F900008954F925F926F927F928F929F92AF922D
:101FA000BF92CF92DF92EF92FF920F931F93CF9346
:101FB000DF9300D0CDB7DEB70091E8011091E901C1
:101FC0009FB7F894D80118962D913C911997232B1F
:101FD00009F06DC0F82E88E793E19A838983C09059
:101FE000EC01D090ED0181E090E019969C938E93E6
:101FF00018971A96FC920E94420B4090EE01509066
:10200000EF014801B2E08B0E911CF20184E0F89ED2
:10201000E00DF11D1124A280B380E12CF12C2F01E1
:1020200066246394712CEA14FB0431F1D201ED9122
:10203000FC91C701880F991FE80FF91F408151815A
:10204000DA011496ED91FC91159780818F5F808362
:1020500073826282F80164817581DB018D919C91AC
:102060001197958384831D921C92C4010E94911143
:10207000BFEFEB1AFB0AD7CFF80180859185019756
:1020800021F482E090E091878087D80118968D91A5
:102090009C911997029779F4F60162817381AB01E3
:1020A000C6010E94D000C6010E94D41104C09FBF87
:1020B00081E090E002C080E090E00F900F90DF910F
:1020C000CF911F910F91FF90EF90DF90CF90BF9035
:1020D000AF909F908F907F906F905F904F900895FA
:1020E000FF920F931F93CF93DF9390E02091E6012F
:1020F0003091E70182179307F0F4E091E401F09149
:10210000E501880F991FE80FF91F00811181F8017F
:1021100087819085029778F4FFB6F894C8010E94F1
:10212000C211EC01892B29F4B80182EE91E00E94E2
:102130000312FFBE02C0C3E0D0E0CE01DF91CF9119
:102140001F910F91FF900895DC011496ED91FC9181
:10215000159784E090E0938382830895EC01EC81ED
:10216000FD81818124E030E0338322838F3F09F0B9
:102170007894E985FA850995E091E801F091E90103
:10218000108A8785882319F0178685858FBF8189F6
:10219000882311F0118A78948FB7F89460E673E180
:1021A0008A819B810E94F0000F931F93CF93DF934E
:1021B000CFB7F89482EE91E00E94C912CFBF009190
:1021C000E8011091E901C091EA01D091EB01F80119
:1021D00080859185029729F42097C9F3FE0109951E
:1021E000F6CF8091EC019091ED01DF91CF911F919D
:1021F0000F910C9445130F931F93CF93DF93EC0132
:10220000A881B981EB01E881F9811696CD91DC9125
:1022100017972097B1F08A819B813097E1F1EC010B
:102220000C811D8122813381E9014C815D81E801AE
:102230003981EA012981321770F522E030E0E801A6
:102240000BC0309741F1EC018C819D81EC014C81F8
:102250005D8122E030E0EA013B832A8320813181E5
:10226000EB0139832883C281D3814C815D8116962D
:102270002D913C911797318320831796FC93EE9311
:102280001697CD93DC932C85FA013181321728F40F
:10229000FA01218302C080E090E0DF91CF911F918D
:1022A0000F9108950F931F93CF93DF93DB01129645
:1022B000ED91FC911397A481B5814115510511F061
:1022C000238502C011962C91EC01E881F981A0E0F0
:1022D000B0E0309791F0C281D3810C811D8141150E
:1022E000510511F03B8502C0E8013981321728F011
:1022F000DF010190F081E02DECCF109729F06D9374
:102300007C9380E090E005C0DC016D937C9381E0DC
:1023100090E0EB01F983E883DF91CF911F910F915A
:102320000895FB015383428341E050E00C94521125
:10233000EF92FF920F931F93CF93DF938C01FC01D9
:10234000C081D181EE80FF80F701808191819F83E0
:102350008E83C8010E94FB10EE81FF81892B51F40E
:10236000309719F08281938103C0F80184819581AF
:1023700099838883C701DF91CF911F910F91FF90BF
:10238000EF900895DC011496ED91FC9115979081E2
:102390001D968C91981728F49F5F908380E090E0C1
:1023A000089584E090E00895DC011496ED91FC918D
:1023B00015971B968C918183808181508083811138
:1023C00003C013821282089581E090E09383828398
:1023D00008952091E4019091E501E22FF92FE80F93
:1023E000F11DE80FF11D60817181DB011496ED9103
:1023F000FC91159780818F5F808340E050E082EEF2
:1024000091E00C94E412CF93DF93DB011496CD910D
:10241000DC911597E091E801F091E90180819181CB
:10242000DC0114962D913C911597D90111965C9180
:102430004981A481B581541718F54D915C9111978C
:102440005583448342E050E0E9015B834A8313965D
:102450007C936E9312972681378111963C932E932D
:10246000B783A68371836083DB011496ED91FC91A1
:102470001597178216820E941C1381E090E01AC003
:102480008A819B81892B31F481E090E09B838A8350
:102490001F821E828D919C91119795838483119642
:1024A0001C921E92AB01BD01CF0102960E949111B8
:1024B00080E090E0DF91CF910895AF92BF92CF92EC
:1024C000DF92EF92FF920F931F93CF93DF93C09110
:1024D000E801D091E901FE01E190F1906F01F7016F
:1024E00004811581FB01F182E082F80182819381F0
:1024F0000497D9F4B60188EE91E00E9498115C012E
:10250000C880D980EC14FD0421F0C7010E94D411C9
:1025100004C0F8019081915090838C819D81F501D8
:1025200091838083BD82AC8228C06E817F81FB0154
:10253000808191819F838E83F7018385F801818358
:1025400081E090E0938382838081813011F417824F
:102550001682A701C6010E949111B60188EE91E092
:102560000E94FB10892B39F4EE81FF81C280D38059
:10257000D982C88202C0C880D980C601DF91CF91BC
:102580001F910F91FF90EF90DF90CF90BF90AF9091
:102590000895CF93DF93C091E801D091E901BE0186
:1025A0006E5F7F4F88EE91E00E94FB10009739F03C
:1025B000688179810E941C1381E090E002C080E074
:1025C00090E0DF91CF910895CF93DF93E091E80100
:1025D000F091E9018081918126813781EC01AC8104
:1025E000BD811296CD91DC911397249731F4C2E00E
:1025F000D0E01396DC93CE931297718360834115DC
:10260000510569F4A481B5814D915C911197558371
:10261000448311961C921E92B783A68302C05783EF
:1026200046830680F781E02D7383628331832083A4
:10263000DF91CF910C941C13FB01A481B5811296FC
:102640002D913C911397DC0112964D915C9113975B
:1026500062817381CF012230310511F40C9488001E
:102660000C94D000CB01DB011496ED91FC911597F1
:102670002281338112966D917C911397223031051E
:1026800011F40C94A8000C94C800DC0112966D9112
:102690007C911397ED91FC9140815181DB01ED918B
:1026A000FC91228933892115310529F4DB01ED9351
:1026B000FC930C94A80024173507C1F3F901F1CF5E
:1026C000CF93DF9300D0CDB7DEB7BE016F5F7F4FF2
:1026D00082EE91E00E945D12BC0189819A810E9484
:1026E00032130F900F90DF91CF910895F894FFCFA0
:1026F000ECEE08958F939F9380E00E9482139F9148
:102700008F9118951F920F920FB60F9211242F934D
:102710003F934F935F936F937F93AF93BF93EF93E9
:10272000FF930E94E911FF91EF91BF91AF917F91CB
:102730006F915F914F913F912F910F900FBE0F902E
:102740001F9008955058BB27AA270E94BA130C94D3
:10275000F7140E94E91438F00E94F01420F039F4C4
:102760009F3F19F426F40C94E6140EF4E095E7FB71
:102770000C94E014E92F0E94081558F3BA17620769
:1027800073078407950720F079F4A6F50C942A15B1
:102790000EF4E0950B2EBA2FA02D0B01B90190017C
:1027A0000C01CA01A0011124FF27591B99F0593FC0
:1027B00050F4503E68F11A16F040A22F232F342F08
:1027C0004427585FF3CF469537952795A795F04056
:1027D0005395C9F77EF41F16BA0B620B730B840B6B
:1027E000BAF09150A1F0FF0FBB1F661F771F881F23
:1027F000C2F70EC0BA0F621F731F841F48F487957B
:1028000077956795B795F7959E3F08F0B0CF93956C
:10281000880F08F09927EE0F9795879508950E94E5
:10282000BC1408F481E008950E9428140C94F71455
:102830000E94F01458F00E94E91440F029F45F3F20
:1028400029F00C94E01451110C942B150C94E614FF
:102850000E94081568F39923B1F3552391F3951B52
:10286000550BBB27AA2762177307840738F09F5FB1
:102870005F4F220F331F441FAA1FA9F335D00E2E1E
:102880003AF0E0E832D091505040E695001CCAF78B
:102890002BD0FE2F29D0660F771F881FBB1F26174E
:1028A00037074807AB07B0E809F0BB0B802DBF0125
:1028B000FF2793585F4F3AF09E3F510578F00C94F4
:1028C000E0140C942B155F3FE4F3983ED4F3869507
:1028D00077956795B795F7959F5FC9F7880F911D15
:1028E0009695879597F90895E1E0660F771F881F01
:1028F000BB1F621773078407BA0720F0621B730BB4
:10290000840BBA0BEE1F88F7E09508950E948D1492
:102910006894B1110C942B1508950E94101588F03D
:102920009F5798F0B92F9927B751B0F0E1F0660F93
:10293000771F881F991F1AF0BA95C9F714C0B130D4
:1029400091F00E942A15B1E008950C942A15672F82
:10295000782F8827B85F39F0B93FCCF38695779503
:102960006795B395D9F73EF49095809570956195EC
:102970007F4F8F4F9F4F0895990F0008550FAA0B57
:10298000E0E8FEEF16161706E807F907C0F0121682
:102990001306E407F50798F0621B730B840B950B85
:1029A00039F40A2661F0232B242B252B21F40895DA
:1029B0000A2609F4A140A6958FEF811D811D089577
:1029C00097F99F6780E870E060E008959FEF80ECE2
:1029D000089500240A941616170618060906089585
:1029E00000240A9412161306140605060895092EEB
:1029F0000394000C11F4882352F0BB0F40F4BF2B5A
:102A000011F460FF04C06F5F7F4F8F4F9F4F089599
:102A100057FD9058440F551F59F05F3F71F047958F
:102A2000880F97FB991F61F09F3F79F08795089574
:102A3000121613061406551FF2CF4695F1DF08C093
:102A4000161617061806991FF1CF869571056105B0
:102A500008940895E894BB2766277727CB0197F958
:102A600008950E94BC1408F48FEF08950E94491540
:102A70000C94F7140E94E91438F00E94F01420F02E
:102A8000952311F00C94E0140C94E61411240C948A
:102A90002B150E94081570F3959FC1F3950F50E018
:102AA000551F629FF001729FBB27F00DB11D639F00
:102AB000AA27F00DB11DAA1F649F6627B00DA11DA6
:102AC000661F829F2227B00DA11D621F739FB00D4C
:102AD000A11D621F839FA00D611D221F749F3327BC
:102AE000A00D611D231F849F600D211D822F762F55
:102AF0006A2F11249F5750409AF0F1F088234AF032
:102B0000EE0FFF1FBB1F661F771F881F915050409D
:102B1000A9F79E3F510580F00C94E0140C942B15FE
:102B20005F3FE4F3983ED4F3869577956795B79524
:102B3000F795E7959F5FC1F7FE2B880F911D96953E
:102B4000879597F9089597FB072E16F4009407D000
:102B500077FD09D00E94D91507FC05D03EF4909569
:102B600081959F4F0895709561957F4F0895A1E2DB
:102B70001A2EAA1BBB1BFD010DC0AA1FBB1FEE1FF7
:102B8000FF1FA217B307E407F50720F0A21BB30B42
:102B9000E40BF50B661F771F881F991F1A9469F7BE
:102BA00060957095809590959B01AC01BD01CF011A
:102BB0000895AA1BBB1B51E107C0AA1FBB1FA61784
:102BC000B70710F0A61BB70B881F991F5A95A9F7D6
:102BD00080959095BC01CD010895EE0FFF1F0590E3
:102BE000F491E02D0994AEE0B0E0E9EFF5E10C944A
:102BF000AF180D891E898F89988D26E02C831A8342
:102C0000098397FF02C080E090E801979E838D833F
:102C1000AE01455E5F4F698D7A8DCE0101960E94AF
:102C200023164D815E8157FD0AC02F8138854217DA
:102C300053070CF49A01F801E20FF31F10822E964D
:102C4000E4E00C94CB18ACE0B0E0E9E2F6E10C94DF
:102C5000A1187C016B018A01FC0117821682838115
:102C600081FFBDC1CE0101964C01F7019381F601B0
:102C700093FD859193FF81916F01882309F4ABC186
:102C8000853239F493FD859193FF81916F018532EF
:102C900029F4B70190E00E940B18E7CF512C312C9A
:102CA00020E02032A0F48B3269F030F4803259F009
:102CB000833269F420612CC08D3239F0803339F4CD
:102CC000216026C02260246023C0286021C027FD27
:102CD00027C030ED380F3A3078F426FF06C0FAE00E
:102CE0005F9E300D1124532E13C08AE0389E300DA4
:102CF0001124332E20620CC08E3221F426FD6BC1CC
:102D0000206406C08C3611F4206802C0883641F475
:102D1000F60193FD859193FF81916F018111C1CFE0
:102D2000982F9F7D9554933028F40C5F1F4FFFE33D
:102D3000F9830DC0833631F0833771F0833509F0A4
:102D40005BC022C0F801808189830E5F1F4F44243D
:102D50004394512C540115C03801F2E06F0E711CE0
:102D6000F801A080B18026FF03C0652D70E002C08D
:102D70006FEF7FEFC5012C870E9400182C018301A3
:102D80002C852F77222E17C03801F2E06F0E711CB0
:102D9000F801A080B18026FF03C0652D70E002C05D
:102DA0006FEF7FEFC5012C870E94F5172C012C8552
:102DB0002068222E830123FC1BC0832D90E048163F
:102DC0005906B0F4B70180E290E00E940B183A94E3
:102DD000F4CFF50127FC859127FE81915F01B701B2
:102DE00090E00E940B1831103A94F1E04F1A51080C
:102DF0004114510471F7E5C0843611F0893639F574
:102E0000F80127FF07C060817181828193810C5F87
:102E10001F4F08C060817181072E000C880B990B31
:102E20000E5F1F4F2F76722E97FF09C090958095E9
:102E3000709561957F4F8F4F9F4F2068722E2AE0CB
:102E400030E0A4010E944318A82EA81844C085377A
:102E500029F42F7EB22E2AE030E025C0F22FF97F30
:102E6000BF2E8F36C1F018F4883579F0B4C08037A2
:102E700019F0883721F0AFC02F2F2061B22EB4FE99
:102E80000DC08B2D8460B82E09C024FF0AC09F2F6F
:102E90009660B92E06C028E030E005C020E130E0A1
:102EA00002C020E132E0F801B7FE07C06081718105
:102EB000828193810C5F1F4F06C06081718180E029
:102EC00090E00E5F1F4FA4010E944318A82EA8187F
:102ED000FB2DFF777F2E76FE0BC0372D3E7FA5148E
:102EE00050F474FE0AC072FC08C0372D3E7E05C047
:102EF000BA2C372D03C0BA2C01C0B52C34FF0DC03D
:102F0000FE01EA0DF11D8081803311F4397E09C084
:102F100032FF06C0B394B39404C0832F867809F0BF
:102F2000B39433FD13C030FF06C05A2CB31418F409
:102F3000530C5B18B32CB31468F4B70180E290E033
:102F40003C870E940B18B3943C85F5CFB31410F462
:102F50003B1801C0312C34FF12C0B70180E390E070
:102F60003C870E940B183C8532FF17C031FD03C01F
:102F700088E790E002C088E590E0B7010CC0832F9D
:102F8000867859F031FF02C08BE201C080E237FD44
:102F90008DE2B70190E00E940B18A51438F4B70138
:102FA00080E390E00E940B185A94F7CFAA94F401A2
:102FB000EA0DF11D8081B70190E00E940B18A1106D
:102FC000F5CF332009F451CEB70180E290E00E94A2
:102FD0000B183A94F6CFF7018681978102C08FEFE4
:102FE0009FEF2C96E2E10C94BD18FC010590615016
:102FF00070400110D8F7809590958E0F9F1F08950F
:10300000FC016150704001900110D8F780959095B7
:103010008E0F9F1F08950F931F93CF93DF93FB0194
:10302000238121FD03C08FEF9FEF28C022FF16C030
:1030300046815781248135814217530744F4A0818A
:10304000B1819D012F5F3F4F318320838C93268177
:1030500037812F5F3F4F3783268310C0EB01092F45
:10306000182F0084F185E02D0995892BE1F68E81DA
:103070009F8101969F838E83812F902FDF91CF9127
:103080001F910F910895FA01AA27283051F120319C
:1030900081F1E8946F936E7F6E5F7F4F8F4F9F4FEC
:1030A000AF4FB1E03ED0B4E03CD0670F781F891F2E
:1030B0009A1FA11D680F791F8A1F911DA11D6A0FFC
:1030C000711D811D911DA11D20D009F468943F91AF
:1030D0002AE0269F11243019305D3193DEF6CF01AE
:1030E0000895462F4770405D4193B3E00FD0C9F774
:1030F000F6CF462F4F70405D4A3318F0495D31FDE1
:103100004052419302D0A9F7EACFB4E0A695979533
:10311000879577956795BA95C9F700976105710509
:1031200008959B01AC010A2E069457954795379553
:103130002795BA95C9F7620F731F841F951FA01DAD
:1031400008952F923F924F925F926F927F928F924B
:103150009F92AF92BF92CF92DF92EF92FF920F9326
:103160001F93CF93DF93CDB7DEB7CA1BDB0B0FB630
:10317000F894DEBF0FBECDBF09942A8839884888ED
:103180005F846E847D848C849B84AA84B984C88483
:10319000DF80EE80FD800C811B81AA81B981CE0F7A
:1031A000D11D0FB6F894DEBF0FBECDBFED0108955F
:0431B000F894FFCFC1
:1031B40002000000204201000D005A0200001C0120
:1031C40000000000FF0000000000000020010000DB
:1031D40024010000280100002C010000300100003F
:1031E400000000000080000000000000000000015A
:1031F40000000000000000000002000000000000C9
:1032040000000001000000000000000000010000B8
:1032140000000000000000010000000000000000A9
:10322400010004000000000000000204820300000A
:103234002564005441534B2025642053503C257091
:103244003E0D0A0054657374204661696C656421FF
:1032540021212C206C696E653A313739200D0A0022
:1032640043617220686173206372617368656420CE
:103274002121212121210D0A0043617220686173FB
:103284002073746F70706564202121212121210D28
:103294000A00D504F80107000A01960B5A02F2014C
:1032A4000100F60101001402060214022202300297
:1032B4003E024C025A0270027E01340100020048B0
:1032C4000B80800168027A013E01010000D80B01E5
:1032D40001016C027C0148010201007C0B02020125
:1032E40070027E0152010300007D0B010101700296
:1032F4007E015C010400007E0B01010170027E016D
:1033040066010500007F0B01010170027E0170015E
:10331400060300D41000000183038000030380002F
:103324000000000000000000E50D200F850DC30D16
:06333400570D710D630D41
:00000001FF
